{
  "_format": "hh-sol-artifact-1",
  "contractName": "CryptoPenguin",
  "sourceName": "contracts/CryptoPenguin.sol",
  "abi": [
    {
      "inputs": [
        {
          "internalType": "string",
          "name": "baseURI",
          "type": "string"
        }
      ],
      "stateMutability": "nonpayable",
      "type": "constructor"
    },
    {
      "anonymous": false,
      "inputs": [
        {
          "indexed": true,
          "internalType": "address",
          "name": "owner",
          "type": "address"
        },
        {
          "indexed": true,
          "internalType": "address",
          "name": "approved",
          "type": "address"
        },
        {
          "indexed": true,
          "internalType": "uint256",
          "name": "tokenId",
          "type": "uint256"
        }
      ],
      "name": "Approval",
      "type": "event"
    },
    {
      "anonymous": false,
      "inputs": [
        {
          "indexed": true,
          "internalType": "address",
          "name": "owner",
          "type": "address"
        },
        {
          "indexed": true,
          "internalType": "address",
          "name": "operator",
          "type": "address"
        },
        {
          "indexed": false,
          "internalType": "bool",
          "name": "approved",
          "type": "bool"
        }
      ],
      "name": "ApprovalForAll",
      "type": "event"
    },
    {
      "anonymous": false,
      "inputs": [
        {
          "indexed": true,
          "internalType": "bytes32",
          "name": "role",
          "type": "bytes32"
        },
        {
          "indexed": true,
          "internalType": "bytes32",
          "name": "previousAdminRole",
          "type": "bytes32"
        },
        {
          "indexed": true,
          "internalType": "bytes32",
          "name": "newAdminRole",
          "type": "bytes32"
        }
      ],
      "name": "RoleAdminChanged",
      "type": "event"
    },
    {
      "anonymous": false,
      "inputs": [
        {
          "indexed": true,
          "internalType": "bytes32",
          "name": "role",
          "type": "bytes32"
        },
        {
          "indexed": true,
          "internalType": "address",
          "name": "account",
          "type": "address"
        },
        {
          "indexed": true,
          "internalType": "address",
          "name": "sender",
          "type": "address"
        }
      ],
      "name": "RoleGranted",
      "type": "event"
    },
    {
      "anonymous": false,
      "inputs": [
        {
          "indexed": true,
          "internalType": "bytes32",
          "name": "role",
          "type": "bytes32"
        },
        {
          "indexed": true,
          "internalType": "address",
          "name": "account",
          "type": "address"
        },
        {
          "indexed": true,
          "internalType": "address",
          "name": "sender",
          "type": "address"
        }
      ],
      "name": "RoleRevoked",
      "type": "event"
    },
    {
      "anonymous": false,
      "inputs": [
        {
          "indexed": true,
          "internalType": "address",
          "name": "from",
          "type": "address"
        },
        {
          "indexed": true,
          "internalType": "address",
          "name": "to",
          "type": "address"
        },
        {
          "indexed": true,
          "internalType": "uint256",
          "name": "tokenId",
          "type": "uint256"
        }
      ],
      "name": "Transfer",
      "type": "event"
    },
    {
      "inputs": [],
      "name": "ADMIN_ROLE",
      "outputs": [
        {
          "internalType": "bytes32",
          "name": "",
          "type": "bytes32"
        }
      ],
      "stateMutability": "view",
      "type": "function"
    },
    {
      "inputs": [],
      "name": "DEFAULT_ADMIN_ROLE",
      "outputs": [
        {
          "internalType": "bytes32",
          "name": "",
          "type": "bytes32"
        }
      ],
      "stateMutability": "view",
      "type": "function"
    },
    {
      "inputs": [],
      "name": "MAX_PENGUINS",
      "outputs": [
        {
          "internalType": "uint256",
          "name": "",
          "type": "uint256"
        }
      ],
      "stateMutability": "view",
      "type": "function"
    },
    {
      "inputs": [
        {
          "internalType": "address",
          "name": "to",
          "type": "address"
        },
        {
          "internalType": "uint256",
          "name": "tokenId",
          "type": "uint256"
        }
      ],
      "name": "approve",
      "outputs": [],
      "stateMutability": "nonpayable",
      "type": "function"
    },
    {
      "inputs": [
        {
          "internalType": "address",
          "name": "owner",
          "type": "address"
        }
      ],
      "name": "balanceOf",
      "outputs": [
        {
          "internalType": "uint256",
          "name": "",
          "type": "uint256"
        }
      ],
      "stateMutability": "view",
      "type": "function"
    },
    {
      "inputs": [
        {
          "internalType": "uint256",
          "name": "tokenId",
          "type": "uint256"
        }
      ],
      "name": "getApproved",
      "outputs": [
        {
          "internalType": "address",
          "name": "",
          "type": "address"
        }
      ],
      "stateMutability": "view",
      "type": "function"
    },
    {
      "inputs": [],
      "name": "getBaseURI",
      "outputs": [
        {
          "internalType": "string",
          "name": "",
          "type": "string"
        }
      ],
      "stateMutability": "view",
      "type": "function"
    },
    {
      "inputs": [
        {
          "internalType": "bytes32",
          "name": "role",
          "type": "bytes32"
        }
      ],
      "name": "getRoleAdmin",
      "outputs": [
        {
          "internalType": "bytes32",
          "name": "",
          "type": "bytes32"
        }
      ],
      "stateMutability": "view",
      "type": "function"
    },
    {
      "inputs": [
        {
          "internalType": "address",
          "name": "owner",
          "type": "address"
        }
      ],
      "name": "getTokensByOwner",
      "outputs": [
        {
          "internalType": "uint256[]",
          "name": "",
          "type": "uint256[]"
        }
      ],
      "stateMutability": "view",
      "type": "function"
    },
    {
      "inputs": [
        {
          "internalType": "bytes32",
          "name": "role",
          "type": "bytes32"
        },
        {
          "internalType": "address",
          "name": "account",
          "type": "address"
        }
      ],
      "name": "grantRole",
      "outputs": [],
      "stateMutability": "nonpayable",
      "type": "function"
    },
    {
      "inputs": [
        {
          "internalType": "bytes32",
          "name": "role",
          "type": "bytes32"
        },
        {
          "internalType": "address",
          "name": "account",
          "type": "address"
        }
      ],
      "name": "hasRole",
      "outputs": [
        {
          "internalType": "bool",
          "name": "",
          "type": "bool"
        }
      ],
      "stateMutability": "view",
      "type": "function"
    },
    {
      "inputs": [
        {
          "internalType": "address",
          "name": "owner",
          "type": "address"
        },
        {
          "internalType": "address",
          "name": "operator",
          "type": "address"
        }
      ],
      "name": "isApprovedForAll",
      "outputs": [
        {
          "internalType": "bool",
          "name": "",
          "type": "bool"
        }
      ],
      "stateMutability": "view",
      "type": "function"
    },
    {
      "inputs": [
        {
          "internalType": "address",
          "name": "recipient",
          "type": "address"
        }
      ],
      "name": "mint",
      "outputs": [
        {
          "internalType": "uint256",
          "name": "",
          "type": "uint256"
        }
      ],
      "stateMutability": "nonpayable",
      "type": "function"
    },
    {
      "inputs": [],
      "name": "name",
      "outputs": [
        {
          "internalType": "string",
          "name": "",
          "type": "string"
        }
      ],
      "stateMutability": "view",
      "type": "function"
    },
    {
      "inputs": [
        {
          "internalType": "uint256",
          "name": "tokenId",
          "type": "uint256"
        }
      ],
      "name": "ownerOf",
      "outputs": [
        {
          "internalType": "address",
          "name": "",
          "type": "address"
        }
      ],
      "stateMutability": "view",
      "type": "function"
    },
    {
      "inputs": [
        {
          "internalType": "bytes32",
          "name": "role",
          "type": "bytes32"
        },
        {
          "internalType": "address",
          "name": "account",
          "type": "address"
        }
      ],
      "name": "renounceRole",
      "outputs": [],
      "stateMutability": "nonpayable",
      "type": "function"
    },
    {
      "inputs": [
        {
          "internalType": "bytes32",
          "name": "role",
          "type": "bytes32"
        },
        {
          "internalType": "address",
          "name": "account",
          "type": "address"
        }
      ],
      "name": "revokeRole",
      "outputs": [],
      "stateMutability": "nonpayable",
      "type": "function"
    },
    {
      "inputs": [
        {
          "internalType": "address",
          "name": "from",
          "type": "address"
        },
        {
          "internalType": "address",
          "name": "to",
          "type": "address"
        },
        {
          "internalType": "uint256",
          "name": "tokenId",
          "type": "uint256"
        }
      ],
      "name": "safeTransferFrom",
      "outputs": [],
      "stateMutability": "nonpayable",
      "type": "function"
    },
    {
      "inputs": [
        {
          "internalType": "address",
          "name": "from",
          "type": "address"
        },
        {
          "internalType": "address",
          "name": "to",
          "type": "address"
        },
        {
          "internalType": "uint256",
          "name": "tokenId",
          "type": "uint256"
        },
        {
          "internalType": "bytes",
          "name": "data",
          "type": "bytes"
        }
      ],
      "name": "safeTransferFrom",
      "outputs": [],
      "stateMutability": "nonpayable",
      "type": "function"
    },
    {
      "inputs": [
        {
          "internalType": "address",
          "name": "operator",
          "type": "address"
        },
        {
          "internalType": "bool",
          "name": "approved",
          "type": "bool"
        }
      ],
      "name": "setApprovalForAll",
      "outputs": [],
      "stateMutability": "nonpayable",
      "type": "function"
    },
    {
      "inputs": [
        {
          "internalType": "string",
          "name": "baseURI",
          "type": "string"
        }
      ],
      "name": "setBaseURI",
      "outputs": [],
      "stateMutability": "nonpayable",
      "type": "function"
    },
    {
      "inputs": [
        {
          "internalType": "bytes4",
          "name": "interfaceId",
          "type": "bytes4"
        }
      ],
      "name": "supportsInterface",
      "outputs": [
        {
          "internalType": "bool",
          "name": "",
          "type": "bool"
        }
      ],
      "stateMutability": "view",
      "type": "function"
    },
    {
      "inputs": [],
      "name": "symbol",
      "outputs": [
        {
          "internalType": "string",
          "name": "",
          "type": "string"
        }
      ],
      "stateMutability": "view",
      "type": "function"
    },
    {
      "inputs": [
        {
          "internalType": "uint256",
          "name": "tokenId",
          "type": "uint256"
        }
      ],
      "name": "tokenURI",
      "outputs": [
        {
          "internalType": "string",
          "name": "",
          "type": "string"
        }
      ],
      "stateMutability": "view",
      "type": "function"
    },
    {
      "inputs": [
        {
          "internalType": "address",
          "name": "from",
          "type": "address"
        },
        {
          "internalType": "address",
          "name": "to",
          "type": "address"
        },
        {
          "internalType": "uint256",
          "name": "tokenId",
          "type": "uint256"
        }
      ],
      "name": "transfer",
      "outputs": [],
      "stateMutability": "nonpayable",
      "type": "function"
    },
    {
      "inputs": [
        {
          "internalType": "address",
          "name": "from",
          "type": "address"
        },
        {
          "internalType": "address",
          "name": "to",
          "type": "address"
        },
        {
          "internalType": "uint256",
          "name": "tokenId",
          "type": "uint256"
        }
      ],
      "name": "transferFrom",
      "outputs": [],
      "stateMutability": "nonpayable",
      "type": "function"
    }
  ],
  "bytecode": "0x60806040523480156200001157600080fd5b50604051620042ed380380620042ed83398181016040528101906200003791906200051a565b6040518060400160405280600d81526020017f43727970746f50656e6775696e000000000000000000000000000000000000008152506040518060400160405280600281526020017f43500000000000000000000000000000000000000000000000000000000000008152508160009080519060200190620000bb929190620002cd565b508060019080519060200190620000d4929190620002cd565b505050620000e8816200013660201b60201c565b620000fd6000801b336200015260201b60201c565b6200012f7fa49807205ce4d355092ef5a8a18f56e8913cf4a201fbe287825b095693c21775336200015260201b60201c565b50620005d0565b80600990805190602001906200014e929190620002cd565b5050565b6200016482826200016860201b60201c565b5050565b6200017a82826200025a60201b60201c565b620002565760016007600084815260200190815260200160002060000160008373ffffffffffffffffffffffffffffffffffffffff1673ffffffffffffffffffffffffffffffffffffffff16815260200190815260200160002060006101000a81548160ff021916908315150217905550620001fb620002c560201b60201c565b73ffffffffffffffffffffffffffffffffffffffff168173ffffffffffffffffffffffffffffffffffffffff16837f2f8788117e7eff1d82e926ec794901d17c78024a50270940304540a733656f0d60405160405180910390a45b5050565b60006007600084815260200190815260200160002060000160008373ffffffffffffffffffffffffffffffffffffffff1673ffffffffffffffffffffffffffffffffffffffff16815260200190815260200160002060009054906101000a900460ff16905092915050565b600033905090565b828054620002db906200059a565b90600052602060002090601f016020900481019282620002ff57600085556200034b565b82601f106200031a57805160ff19168380011785556200034b565b828001600101855582156200034b579182015b828111156200034a5782518255916020019190600101906200032d565b5b5090506200035a91906200035e565b5090565b5b80821115620003795760008160009055506001016200035f565b5090565b6000604051905090565b600080fd5b600080fd5b600080fd5b600080fd5b6000601f19601f8301169050919050565b7f4e487b7100000000000000000000000000000000000000000000000000000000600052604160045260246000fd5b620003e6826200039b565b810181811067ffffffffffffffff82111715620004085762000407620003ac565b5b80604052505050565b60006200041d6200037d565b90506200042b8282620003db565b919050565b600067ffffffffffffffff8211156200044e576200044d620003ac565b5b62000459826200039b565b9050602081019050919050565b60005b838110156200048657808201518184015260208101905062000469565b8381111562000496576000848401525b50505050565b6000620004b3620004ad8462000430565b62000411565b905082815260208101848484011115620004d257620004d162000396565b5b620004df84828562000466565b509392505050565b600082601f830112620004ff57620004fe62000391565b5b8151620005118482602086016200049c565b91505092915050565b60006020828403121562000533576200053262000387565b5b600082015167ffffffffffffffff8111156200055457620005536200038c565b5b6200056284828501620004e7565b91505092915050565b7f4e487b7100000000000000000000000000000000000000000000000000000000600052602260045260246000fd5b60006002820490506001821680620005b357607f821691505b60208210811415620005ca57620005c96200056b565b5b50919050565b613d0d80620005e06000396000f3fe608060405234801561001057600080fd5b506004361061018e5760003560e01c80636a627842116100de578063a217fddf11610097578063beabacc811610071578063beabacc8146104a7578063c87b56dd146104c3578063d547741f146104f3578063e985e9c51461050f5761018e565b8063a217fddf14610451578063a22cb4651461046f578063b88d4fde1461048b5761018e565b80636a6278421461036757806370a0823114610397578063714c5398146103c757806375b238fc146103e557806391d148541461040357806395d89b41146104335761018e565b8063248a9ca31161014b57806340398d671161012557806340398d67146102cf57806342842e0e146102ff57806355f804b31461031b5780636352211e146103375761018e565b8063248a9ca3146102675780632f2ff15d1461029757806336568abe146102b35761018e565b806301ffc9a71461019357806306fdde03146101c3578063081812fc146101e1578063095ea7b3146102115780631b95a0221461022d57806323b872dd1461024b575b600080fd5b6101ad60048036038101906101a89190612720565b61053f565b6040516101ba9190612768565b60405180910390f35b6101cb610551565b6040516101d8919061281c565b60405180910390f35b6101fb60048036038101906101f69190612874565b6105e3565b60405161020891906128e2565b60405180910390f35b61022b60048036038101906102269190612929565b610629565b005b610235610741565b6040516102429190612978565b60405180910390f35b61026560048036038101906102609190612993565b610747565b005b610281600480360381019061027c9190612a1c565b6107a7565b60405161028e9190612a58565b60405180910390f35b6102b160048036038101906102ac9190612a73565b6107c7565b005b6102cd60048036038101906102c89190612a73565b6107e8565b005b6102e960048036038101906102e49190612ab3565b61086b565b6040516102f69190612b9e565b60405180910390f35b61031960048036038101906103149190612993565b610969565b005b61033560048036038101906103309190612cf5565b610989565b005b610351600480360381019061034c9190612874565b6109fe565b60405161035e91906128e2565b60405180910390f35b610381600480360381019061037c9190612ab3565b610a85565b60405161038e9190612978565b60405180910390f35b6103b160048036038101906103ac9190612ab3565b610b39565b6040516103be9190612978565b60405180910390f35b6103cf610bf1565b6040516103dc919061281c565b60405180910390f35b6103ed610c83565b6040516103fa9190612a58565b60405180910390f35b61041d60048036038101906104189190612a73565b610ca7565b60405161042a9190612768565b60405180910390f35b61043b610d12565b604051610448919061281c565b60405180910390f35b610459610da4565b6040516104669190612a58565b60405180910390f35b61048960048036038101906104849190612d6a565b610dab565b005b6104a560048036038101906104a09190612e4b565b610dc1565b005b6104c160048036038101906104bc9190612993565b610e23565b005b6104dd60048036038101906104d89190612874565b610e7c565b6040516104ea919061281c565b60405180910390f35b61050d60048036038101906105089190612a73565b610f8f565b005b61052960048036038101906105249190612ece565b610fb0565b6040516105369190612768565b60405180910390f35b600061054a82611044565b9050919050565b60606000805461056090612f3d565b80601f016020809104026020016040519081016040528092919081815260200182805461058c90612f3d565b80156105d95780601f106105ae576101008083540402835291602001916105d9565b820191906000526020600020905b8154815290600101906020018083116105bc57829003601f168201915b5050505050905090565b60006105ee826110be565b6004600083815260200190815260200160002060009054906101000a900473ffffffffffffffffffffffffffffffffffffffff169050919050565b6000610634826109fe565b90508073ffffffffffffffffffffffffffffffffffffffff168373ffffffffffffffffffffffffffffffffffffffff1614156106a5576040517f08c379a000000000000000000000000000000000000000000000000000000000815260040161069c90612fe1565b60405180910390fd5b8073ffffffffffffffffffffffffffffffffffffffff166106c4611109565b73ffffffffffffffffffffffffffffffffffffffff1614806106f357506106f2816106ed611109565b610fb0565b5b610732576040517f08c379a000000000000000000000000000000000000000000000000000000000815260040161072990613073565b60405180910390fd5b61073c8383611111565b505050565b6103e881565b610758610752611109565b826111ca565b610797576040517f08c379a000000000000000000000000000000000000000000000000000000000815260040161078e90613105565b60405180910390fd5b6107a283838361125f565b505050565b600060076000838152602001908152602001600020600101549050919050565b6107d0826107a7565b6107d981611559565b6107e3838361156d565b505050565b6107f0611109565b73ffffffffffffffffffffffffffffffffffffffff168173ffffffffffffffffffffffffffffffffffffffff161461085d576040517f08c379a000000000000000000000000000000000000000000000000000000000815260040161085490613197565b60405180910390fd5b610867828261164e565b5050565b6060600061087883610b39565b905060008167ffffffffffffffff81111561089657610895612bca565b5b6040519080825280602002602001820160405280156108c45781602001602082028036833780820191505090505b509050600080600190505b6108d96008611730565b811161095d578573ffffffffffffffffffffffffffffffffffffffff166108ff826109fe565b73ffffffffffffffffffffffffffffffffffffffff16141561094a578083838151811061092f5761092e6131b7565b5b602002602001018181525050818061094690613215565b9250505b808061095590613215565b9150506108cf565b50819350505050919050565b61098483838360405180602001604052806000815250610dc1565b505050565b6109b37fa49807205ce4d355092ef5a8a18f56e8913cf4a201fbe287825b095693c2177533610ca7565b6109f2576040517f08c379a00000000000000000000000000000000000000000000000000000000081526004016109e9906132d0565b60405180910390fd5b6109fb8161173e565b50565b600080610a0a83611758565b9050600073ffffffffffffffffffffffffffffffffffffffff168173ffffffffffffffffffffffffffffffffffffffff161415610a7c576040517f08c379a0000000000000000000000000000000000000000000000000000000008152600401610a739061333c565b60405180910390fd5b80915050919050565b60006103e8610a946008611730565b10610ad4576040517f08c379a0000000000000000000000000000000000000000000000000000000008152600401610acb906133ce565b60405180910390fd5b610ade6008611795565b6000610aea6008611730565b9050610af683826117ab565b610b3081610b02610bf1565b610b0b846119c9565b604051602001610b1c929190613476565b604051602081830303815290604052611aa1565b80915050919050565b60008073ffffffffffffffffffffffffffffffffffffffff168273ffffffffffffffffffffffffffffffffffffffff161415610baa576040517f08c379a0000000000000000000000000000000000000000000000000000000008152600401610ba190613517565b60405180910390fd5b600360008373ffffffffffffffffffffffffffffffffffffffff1673ffffffffffffffffffffffffffffffffffffffff168152602001908152602001600020549050919050565b606060098054610c0090612f3d565b80601f0160208091040260200160405190810160405280929190818152602001828054610c2c90612f3d565b8015610c795780601f10610c4e57610100808354040283529160200191610c79565b820191906000526020600020905b815481529060010190602001808311610c5c57829003601f168201915b5050505050905090565b7fa49807205ce4d355092ef5a8a18f56e8913cf4a201fbe287825b095693c2177581565b60006007600084815260200190815260200160002060000160008373ffffffffffffffffffffffffffffffffffffffff1673ffffffffffffffffffffffffffffffffffffffff16815260200190815260200160002060009054906101000a900460ff16905092915050565b606060018054610d2190612f3d565b80601f0160208091040260200160405190810160405280929190818152602001828054610d4d90612f3d565b8015610d9a5780601f10610d6f57610100808354040283529160200191610d9a565b820191906000526020600020905b815481529060010190602001808311610d7d57829003601f168201915b5050505050905090565b6000801b81565b610dbd610db6611109565b8383611b15565b5050565b610dd2610dcc611109565b836111ca565b610e11576040517f08c379a0000000000000000000000000000000000000000000000000000000008152600401610e0890613105565b60405180910390fd5b610e1d84848484611c82565b50505050565b610e2d33826111ca565b610e6c576040517f08c379a0000000000000000000000000000000000000000000000000000000008152600401610e63906135a9565b60405180910390fd5b610e7783838361125f565b505050565b6060610e87826110be565b6000600660008481526020019081526020016000208054610ea790612f3d565b80601f0160208091040260200160405190810160405280929190818152602001828054610ed390612f3d565b8015610f205780601f10610ef557610100808354040283529160200191610f20565b820191906000526020600020905b815481529060010190602001808311610f0357829003601f168201915b505050505090506000610f31611cde565b9050600081511415610f47578192505050610f8a565b600082511115610f7c578082604051602001610f649291906135c9565b60405160208183030381529060405292505050610f8a565b610f8584611cf5565b925050505b919050565b610f98826107a7565b610fa181611559565b610fab838361164e565b505050565b6000600560008473ffffffffffffffffffffffffffffffffffffffff1673ffffffffffffffffffffffffffffffffffffffff16815260200190815260200160002060008373ffffffffffffffffffffffffffffffffffffffff1673ffffffffffffffffffffffffffffffffffffffff16815260200190815260200160002060009054906101000a900460ff16905092915050565b60007f7965db0b000000000000000000000000000000000000000000000000000000007bffffffffffffffffffffffffffffffffffffffffffffffffffffffff1916827bffffffffffffffffffffffffffffffffffffffffffffffffffffffff191614806110b757506110b682611d5d565b5b9050919050565b6110c781611e3f565b611106576040517f08c379a00000000000000000000000000000000000000000000000000000000081526004016110fd9061333c565b60405180910390fd5b50565b600033905090565b816004600083815260200190815260200160002060006101000a81548173ffffffffffffffffffffffffffffffffffffffff021916908373ffffffffffffffffffffffffffffffffffffffff160217905550808273ffffffffffffffffffffffffffffffffffffffff16611184836109fe565b73ffffffffffffffffffffffffffffffffffffffff167f8c5be1e5ebec7d5bd14f71427d1e84f3dd0314c0f7b2291e5b200ac8c7c3b92560405160405180910390a45050565b6000806111d6836109fe565b90508073ffffffffffffffffffffffffffffffffffffffff168473ffffffffffffffffffffffffffffffffffffffff16148061121857506112178185610fb0565b5b8061125657508373ffffffffffffffffffffffffffffffffffffffff1661123e846105e3565b73ffffffffffffffffffffffffffffffffffffffff16145b91505092915050565b8273ffffffffffffffffffffffffffffffffffffffff1661127f826109fe565b73ffffffffffffffffffffffffffffffffffffffff16146112d5576040517f08c379a00000000000000000000000000000000000000000000000000000000081526004016112cc9061365f565b60405180910390fd5b600073ffffffffffffffffffffffffffffffffffffffff168273ffffffffffffffffffffffffffffffffffffffff161415611345576040517f08c379a000000000000000000000000000000000000000000000000000000000815260040161133c906136f1565b60405180910390fd5b6113528383836001611e80565b8273ffffffffffffffffffffffffffffffffffffffff16611372826109fe565b73ffffffffffffffffffffffffffffffffffffffff16146113c8576040517f08c379a00000000000000000000000000000000000000000000000000000000081526004016113bf9061365f565b60405180910390fd5b6004600082815260200190815260200160002060006101000a81549073ffffffffffffffffffffffffffffffffffffffff02191690556001600360008573ffffffffffffffffffffffffffffffffffffffff1673ffffffffffffffffffffffffffffffffffffffff168152602001908152602001600020600082825403925050819055506001600360008473ffffffffffffffffffffffffffffffffffffffff1673ffffffffffffffffffffffffffffffffffffffff16815260200190815260200160002060008282540192505081905550816002600083815260200190815260200160002060006101000a81548173ffffffffffffffffffffffffffffffffffffffff021916908373ffffffffffffffffffffffffffffffffffffffff160217905550808273ffffffffffffffffffffffffffffffffffffffff168473ffffffffffffffffffffffffffffffffffffffff167fddf252ad1be2c89b69c2b068fc378daa952ba7f163c4a11628f55a4df523b3ef60405160405180910390a46115548383836001611fa6565b505050565b61156a81611565611109565b611fac565b50565b6115778282610ca7565b61164a5760016007600084815260200190815260200160002060000160008373ffffffffffffffffffffffffffffffffffffffff1673ffffffffffffffffffffffffffffffffffffffff16815260200190815260200160002060006101000a81548160ff0219169083151502179055506115ef611109565b73ffffffffffffffffffffffffffffffffffffffff168173ffffffffffffffffffffffffffffffffffffffff16837f2f8788117e7eff1d82e926ec794901d17c78024a50270940304540a733656f0d60405160405180910390a45b5050565b6116588282610ca7565b1561172c5760006007600084815260200190815260200160002060000160008373ffffffffffffffffffffffffffffffffffffffff1673ffffffffffffffffffffffffffffffffffffffff16815260200190815260200160002060006101000a81548160ff0219169083151502179055506116d1611109565b73ffffffffffffffffffffffffffffffffffffffff168173ffffffffffffffffffffffffffffffffffffffff16837ff6391f5c32d9c69d2a47ea670b442974b53935d1edc7fd64eb21e047a839171b60405160405180910390a45b5050565b600081600001549050919050565b8060099080519060200190611754929190612611565b5050565b60006002600083815260200190815260200160002060009054906101000a900473ffffffffffffffffffffffffffffffffffffffff169050919050565b6001816000016000828254019250508190555050565b600073ffffffffffffffffffffffffffffffffffffffff168273ffffffffffffffffffffffffffffffffffffffff16141561181b576040517f08c379a00000000000000000000000000000000000000000000000000000000081526004016118129061375d565b60405180910390fd5b61182481611e3f565b15611864576040517f08c379a000000000000000000000000000000000000000000000000000000000815260040161185b906137c9565b60405180910390fd5b611872600083836001611e80565b61187b81611e3f565b156118bb576040517f08c379a00000000000000000000000000000000000000000000000000000000081526004016118b2906137c9565b60405180910390fd5b6001600360008473ffffffffffffffffffffffffffffffffffffffff1673ffffffffffffffffffffffffffffffffffffffff16815260200190815260200160002060008282540192505081905550816002600083815260200190815260200160002060006101000a81548173ffffffffffffffffffffffffffffffffffffffff021916908373ffffffffffffffffffffffffffffffffffffffff160217905550808273ffffffffffffffffffffffffffffffffffffffff16600073ffffffffffffffffffffffffffffffffffffffff167fddf252ad1be2c89b69c2b068fc378daa952ba7f163c4a11628f55a4df523b3ef60405160405180910390a46119c5600083836001611fa6565b5050565b6060600060016119d884612031565b01905060008167ffffffffffffffff8111156119f7576119f6612bca565b5b6040519080825280601f01601f191660200182016040528015611a295781602001600182028036833780820191505090505b509050600082602001820190505b600115611a96578080600190039150507f3031323334353637383961626364656600000000000000000000000000000000600a86061a8153600a8581611a8057611a7f6137e9565b5b0494506000851415611a9157611a96565b611a37565b819350505050919050565b611aaa82611e3f565b611ae9576040517f08c379a0000000000000000000000000000000000000000000000000000000008152600401611ae09061388a565b60405180910390fd5b80600660008481526020019081526020016000209080519060200190611b10929190612611565b505050565b8173ffffffffffffffffffffffffffffffffffffffff168373ffffffffffffffffffffffffffffffffffffffff161415611b84576040517f08c379a0000000000000000000000000000000000000000000000000000000008152600401611b7b906138f6565b60405180910390fd5b80600560008573ffffffffffffffffffffffffffffffffffffffff1673ffffffffffffffffffffffffffffffffffffffff16815260200190815260200160002060008473ffffffffffffffffffffffffffffffffffffffff1673ffffffffffffffffffffffffffffffffffffffff16815260200190815260200160002060006101000a81548160ff0219169083151502179055508173ffffffffffffffffffffffffffffffffffffffff168373ffffffffffffffffffffffffffffffffffffffff167f17307eab39ab6107e8899845ad3d59bd9653f200f220920489ca2b5937696c3183604051611c759190612768565b60405180910390a3505050565b611c8d84848461125f565b611c9984848484612184565b611cd8576040517f08c379a0000000000000000000000000000000000000000000000000000000008152600401611ccf90613988565b60405180910390fd5b50505050565b606060405180602001604052806000815250905090565b6060611d00826110be565b6000611d0a611cde565b90506000815111611d2a5760405180602001604052806000815250611d55565b80611d34846119c9565b604051602001611d459291906135c9565b6040516020818303038152906040525b915050919050565b60007f80ac58cd000000000000000000000000000000000000000000000000000000007bffffffffffffffffffffffffffffffffffffffffffffffffffffffff1916827bffffffffffffffffffffffffffffffffffffffffffffffffffffffff19161480611e2857507f5b5e139f000000000000000000000000000000000000000000000000000000007bffffffffffffffffffffffffffffffffffffffffffffffffffffffff1916827bffffffffffffffffffffffffffffffffffffffffffffffffffffffff1916145b80611e385750611e378261231b565b5b9050919050565b60008073ffffffffffffffffffffffffffffffffffffffff16611e6183611758565b73ffffffffffffffffffffffffffffffffffffffff1614159050919050565b6001811115611fa057600073ffffffffffffffffffffffffffffffffffffffff168473ffffffffffffffffffffffffffffffffffffffff1614611f145780600360008673ffffffffffffffffffffffffffffffffffffffff1673ffffffffffffffffffffffffffffffffffffffff1681526020019081526020016000206000828254611f0c91906139a8565b925050819055505b600073ffffffffffffffffffffffffffffffffffffffff168373ffffffffffffffffffffffffffffffffffffffff1614611f9f5780600360008573ffffffffffffffffffffffffffffffffffffffff1673ffffffffffffffffffffffffffffffffffffffff1681526020019081526020016000206000828254611f9791906139dc565b925050819055505b5b50505050565b50505050565b611fb68282610ca7565b61202d57611fc381612385565b611fd18360001c60206123b2565b604051602001611fe2929190613aca565b6040516020818303038152906040526040517f08c379a0000000000000000000000000000000000000000000000000000000008152600401612024919061281c565b60405180910390fd5b5050565b600080600090507a184f03e93ff9f4daa797ed6e38ed64bf6a1f010000000000000000831061208f577a184f03e93ff9f4daa797ed6e38ed64bf6a1f0100000000000000008381612085576120846137e9565b5b0492506040810190505b6d04ee2d6d415b85acef810000000083106120cc576d04ee2d6d415b85acef810000000083816120c2576120c16137e9565b5b0492506020810190505b662386f26fc1000083106120fb57662386f26fc1000083816120f1576120f06137e9565b5b0492506010810190505b6305f5e1008310612124576305f5e100838161211a576121196137e9565b5b0492506008810190505b612710831061214957612710838161213f5761213e6137e9565b5b0492506004810190505b6064831061216c5760648381612162576121616137e9565b5b0492506002810190505b600a831061217b576001810190505b80915050919050565b60006121a58473ffffffffffffffffffffffffffffffffffffffff166125ee565b1561230e578373ffffffffffffffffffffffffffffffffffffffff1663150b7a026121ce611109565b8786866040518563ffffffff1660e01b81526004016121f09493929190613b59565b602060405180830381600087803b15801561220a57600080fd5b505af192505050801561223b57506040513d601f19601f820116820180604052508101906122389190613bba565b60015b6122be573d806000811461226b576040519150601f19603f3d011682016040523d82523d6000602084013e612270565b606091505b506000815114156122b6576040517f08c379a00000000000000000000000000000000000000000000000000000000081526004016122ad90613988565b60405180910390fd5b805181602001fd5b63150b7a0260e01b7bffffffffffffffffffffffffffffffffffffffffffffffffffffffff1916817bffffffffffffffffffffffffffffffffffffffffffffffffffffffff191614915050612313565b600190505b949350505050565b60007f01ffc9a7000000000000000000000000000000000000000000000000000000007bffffffffffffffffffffffffffffffffffffffffffffffffffffffff1916827bffffffffffffffffffffffffffffffffffffffffffffffffffffffff1916149050919050565b60606123ab8273ffffffffffffffffffffffffffffffffffffffff16601460ff166123b2565b9050919050565b6060600060028360026123c59190613be7565b6123cf91906139dc565b67ffffffffffffffff8111156123e8576123e7612bca565b5b6040519080825280601f01601f19166020018201604052801561241a5781602001600182028036833780820191505090505b5090507f300000000000000000000000000000000000000000000000000000000000000081600081518110612452576124516131b7565b5b60200101907effffffffffffffffffffffffffffffffffffffffffffffffffffffffffffff1916908160001a9053507f7800000000000000000000000000000000000000000000000000000000000000816001815181106124b6576124b56131b7565b5b60200101907effffffffffffffffffffffffffffffffffffffffffffffffffffffffffffff1916908160001a905350600060018460026124f69190613be7565b61250091906139dc565b90505b60018111156125a0577f3031323334353637383961626364656600000000000000000000000000000000600f861660108110612542576125416131b7565b5b1a60f81b828281518110612559576125586131b7565b5b60200101907effffffffffffffffffffffffffffffffffffffffffffffffffffffffffffff1916908160001a905350600485901c94508061259990613c41565b9050612503565b50600084146125e4576040517f08c379a00000000000000000000000000000000000000000000000000000000081526004016125db90613cb7565b60405180910390fd5b8091505092915050565b6000808273ffffffffffffffffffffffffffffffffffffffff163b119050919050565b82805461261d90612f3d565b90600052602060002090601f01602090048101928261263f5760008555612686565b82601f1061265857805160ff1916838001178555612686565b82800160010185558215612686579182015b8281111561268557825182559160200191906001019061266a565b5b5090506126939190612697565b5090565b5b808211156126b0576000816000905550600101612698565b5090565b6000604051905090565b600080fd5b600080fd5b60007fffffffff0000000000000000000000000000000000000000000000000000000082169050919050565b6126fd816126c8565b811461270857600080fd5b50565b60008135905061271a816126f4565b92915050565b600060208284031215612736576127356126be565b5b60006127448482850161270b565b91505092915050565b60008115159050919050565b6127628161274d565b82525050565b600060208201905061277d6000830184612759565b92915050565b600081519050919050565b600082825260208201905092915050565b60005b838110156127bd5780820151818401526020810190506127a2565b838111156127cc576000848401525b50505050565b6000601f19601f8301169050919050565b60006127ee82612783565b6127f8818561278e565b935061280881856020860161279f565b612811816127d2565b840191505092915050565b6000602082019050818103600083015261283681846127e3565b905092915050565b6000819050919050565b6128518161283e565b811461285c57600080fd5b50565b60008135905061286e81612848565b92915050565b60006020828403121561288a576128896126be565b5b60006128988482850161285f565b91505092915050565b600073ffffffffffffffffffffffffffffffffffffffff82169050919050565b60006128cc826128a1565b9050919050565b6128dc816128c1565b82525050565b60006020820190506128f760008301846128d3565b92915050565b612906816128c1565b811461291157600080fd5b50565b600081359050612923816128fd565b92915050565b600080604083850312156129405761293f6126be565b5b600061294e85828601612914565b925050602061295f8582860161285f565b9150509250929050565b6129728161283e565b82525050565b600060208201905061298d6000830184612969565b92915050565b6000806000606084860312156129ac576129ab6126be565b5b60006129ba86828701612914565b93505060206129cb86828701612914565b92505060406129dc8682870161285f565b9150509250925092565b6000819050919050565b6129f9816129e6565b8114612a0457600080fd5b50565b600081359050612a16816129f0565b92915050565b600060208284031215612a3257612a316126be565b5b6000612a4084828501612a07565b91505092915050565b612a52816129e6565b82525050565b6000602082019050612a6d6000830184612a49565b92915050565b60008060408385031215612a8a57612a896126be565b5b6000612a9885828601612a07565b9250506020612aa985828601612914565b9150509250929050565b600060208284031215612ac957612ac86126be565b5b6000612ad784828501612914565b91505092915050565b600081519050919050565b600082825260208201905092915050565b6000819050602082019050919050565b612b158161283e565b82525050565b6000612b278383612b0c565b60208301905092915050565b6000602082019050919050565b6000612b4b82612ae0565b612b558185612aeb565b9350612b6083612afc565b8060005b83811015612b91578151612b788882612b1b565b9750612b8383612b33565b925050600181019050612b64565b5085935050505092915050565b60006020820190508181036000830152612bb88184612b40565b905092915050565b600080fd5b600080fd5b7f4e487b7100000000000000000000000000000000000000000000000000000000600052604160045260246000fd5b612c02826127d2565b810181811067ffffffffffffffff82111715612c2157612c20612bca565b5b80604052505050565b6000612c346126b4565b9050612c408282612bf9565b919050565b600067ffffffffffffffff821115612c6057612c5f612bca565b5b612c69826127d2565b9050602081019050919050565b82818337600083830152505050565b6000612c98612c9384612c45565b612c2a565b905082815260208101848484011115612cb457612cb3612bc5565b5b612cbf848285612c76565b509392505050565b600082601f830112612cdc57612cdb612bc0565b5b8135612cec848260208601612c85565b91505092915050565b600060208284031215612d0b57612d0a6126be565b5b600082013567ffffffffffffffff811115612d2957612d286126c3565b5b612d3584828501612cc7565b91505092915050565b612d478161274d565b8114612d5257600080fd5b50565b600081359050612d6481612d3e565b92915050565b60008060408385031215612d8157612d806126be565b5b6000612d8f85828601612914565b9250506020612da085828601612d55565b9150509250929050565b600067ffffffffffffffff821115612dc557612dc4612bca565b5b612dce826127d2565b9050602081019050919050565b6000612dee612de984612daa565b612c2a565b905082815260208101848484011115612e0a57612e09612bc5565b5b612e15848285612c76565b509392505050565b600082601f830112612e3257612e31612bc0565b5b8135612e42848260208601612ddb565b91505092915050565b60008060008060808587031215612e6557612e646126be565b5b6000612e7387828801612914565b9450506020612e8487828801612914565b9350506040612e958782880161285f565b925050606085013567ffffffffffffffff811115612eb657612eb56126c3565b5b612ec287828801612e1d565b91505092959194509250565b60008060408385031215612ee557612ee46126be565b5b6000612ef385828601612914565b9250506020612f0485828601612914565b9150509250929050565b7f4e487b7100000000000000000000000000000000000000000000000000000000600052602260045260246000fd5b60006002820490506001821680612f5557607f821691505b60208210811415612f6957612f68612f0e565b5b50919050565b7f4552433732313a20617070726f76616c20746f2063757272656e74206f776e6560008201527f7200000000000000000000000000000000000000000000000000000000000000602082015250565b6000612fcb60218361278e565b9150612fd682612f6f565b604082019050919050565b60006020820190508181036000830152612ffa81612fbe565b9050919050565b7f4552433732313a20617070726f76652063616c6c6572206973206e6f7420746f60008201527f6b656e206f776e6572206f7220617070726f76656420666f7220616c6c000000602082015250565b600061305d603d8361278e565b915061306882613001565b604082019050919050565b6000602082019050818103600083015261308c81613050565b9050919050565b7f4552433732313a2063616c6c6572206973206e6f7420746f6b656e206f776e6560008201527f72206f7220617070726f76656400000000000000000000000000000000000000602082015250565b60006130ef602d8361278e565b91506130fa82613093565b604082019050919050565b6000602082019050818103600083015261311e816130e2565b9050919050565b7f416363657373436f6e74726f6c3a2063616e206f6e6c792072656e6f756e636560008201527f20726f6c657320666f722073656c660000000000000000000000000000000000602082015250565b6000613181602f8361278e565b915061318c82613125565b604082019050919050565b600060208201905081810360008301526131b081613174565b9050919050565b7f4e487b7100000000000000000000000000000000000000000000000000000000600052603260045260246000fd5b7f4e487b7100000000000000000000000000000000000000000000000000000000600052601160045260246000fd5b60006132208261283e565b91507fffffffffffffffffffffffffffffffffffffffffffffffffffffffffffffffff821415613253576132526131e6565b5b600182019050919050565b7f43727970746f50656e6775696e3a206d75737420686176652061646d696e207260008201527f6f6c6520746f2073657420626173652055524900000000000000000000000000602082015250565b60006132ba60338361278e565b91506132c58261325e565b604082019050919050565b600060208201905081810360008301526132e9816132ad565b9050919050565b7f4552433732313a20696e76616c696420746f6b656e2049440000000000000000600082015250565b600061332660188361278e565b9150613331826132f0565b602082019050919050565b6000602082019050818103600083015261335581613319565b9050919050565b7f43727970746f50656e6775696e3a206d6178696d756d206e756d626572206f6660008201527f2070656e6775696e732072656163686564000000000000000000000000000000602082015250565b60006133b860318361278e565b91506133c38261335c565b604082019050919050565b600060208201905081810360008301526133e7816133ab565b9050919050565b600081905092915050565b600061340482612783565b61340e81856133ee565b935061341e81856020860161279f565b80840191505092915050565b7f2f6d657461646174612e6a736f6e000000000000000000000000000000000000600082015250565b6000613460600e836133ee565b915061346b8261342a565b600e82019050919050565b600061348282856133f9565b915061348e82846133f9565b915061349982613453565b91508190509392505050565b7f4552433732313a2061646472657373207a65726f206973206e6f74206120766160008201527f6c6964206f776e65720000000000000000000000000000000000000000000000602082015250565b600061350160298361278e565b915061350c826134a5565b604082019050919050565b60006020820190508181036000830152613530816134f4565b9050919050565b7f43727970746f50656e6775696e3a207472616e736665722063616c6c6572206960008201527f73206e6f74206f776e6572206e6f7220617070726f7665640000000000000000602082015250565b600061359360388361278e565b915061359e82613537565b604082019050919050565b600060208201905081810360008301526135c281613586565b9050919050565b60006135d582856133f9565b91506135e182846133f9565b91508190509392505050565b7f4552433732313a207472616e736665722066726f6d20696e636f72726563742060008201527f6f776e6572000000000000000000000000000000000000000000000000000000602082015250565b600061364960258361278e565b9150613654826135ed565b604082019050919050565b600060208201905081810360008301526136788161363c565b9050919050565b7f4552433732313a207472616e7366657220746f20746865207a65726f2061646460008201527f7265737300000000000000000000000000000000000000000000000000000000602082015250565b60006136db60248361278e565b91506136e68261367f565b604082019050919050565b6000602082019050818103600083015261370a816136ce565b9050919050565b7f4552433732313a206d696e7420746f20746865207a65726f2061646472657373600082015250565b600061374760208361278e565b915061375282613711565b602082019050919050565b600060208201905081810360008301526137768161373a565b9050919050565b7f4552433732313a20746f6b656e20616c7265616479206d696e74656400000000600082015250565b60006137b3601c8361278e565b91506137be8261377d565b602082019050919050565b600060208201905081810360008301526137e2816137a6565b9050919050565b7f4e487b7100000000000000000000000000000000000000000000000000000000600052601260045260246000fd5b7f45524337323155524953746f726167653a2055524920736574206f66206e6f6e60008201527f6578697374656e7420746f6b656e000000000000000000000000000000000000602082015250565b6000613874602e8361278e565b915061387f82613818565b604082019050919050565b600060208201905081810360008301526138a381613867565b9050919050565b7f4552433732313a20617070726f766520746f2063616c6c657200000000000000600082015250565b60006138e060198361278e565b91506138eb826138aa565b602082019050919050565b6000602082019050818103600083015261390f816138d3565b9050919050565b7f4552433732313a207472616e7366657220746f206e6f6e20455243373231526560008201527f63656976657220696d706c656d656e7465720000000000000000000000000000602082015250565b600061397260328361278e565b915061397d82613916565b604082019050919050565b600060208201905081810360008301526139a181613965565b9050919050565b60006139b38261283e565b91506139be8361283e565b9250828210156139d1576139d06131e6565b5b828203905092915050565b60006139e78261283e565b91506139f28361283e565b9250827fffffffffffffffffffffffffffffffffffffffffffffffffffffffffffffffff03821115613a2757613a266131e6565b5b828201905092915050565b7f416363657373436f6e74726f6c3a206163636f756e7420000000000000000000600082015250565b6000613a686017836133ee565b9150613a7382613a32565b601782019050919050565b7f206973206d697373696e6720726f6c6520000000000000000000000000000000600082015250565b6000613ab46011836133ee565b9150613abf82613a7e565b601182019050919050565b6000613ad582613a5b565b9150613ae182856133f9565b9150613aec82613aa7565b9150613af882846133f9565b91508190509392505050565b600081519050919050565b600082825260208201905092915050565b6000613b2b82613b04565b613b358185613b0f565b9350613b4581856020860161279f565b613b4e816127d2565b840191505092915050565b6000608082019050613b6e60008301876128d3565b613b7b60208301866128d3565b613b886040830185612969565b8181036060830152613b9a8184613b20565b905095945050505050565b600081519050613bb4816126f4565b92915050565b600060208284031215613bd057613bcf6126be565b5b6000613bde84828501613ba5565b91505092915050565b6000613bf28261283e565b9150613bfd8361283e565b9250817fffffffffffffffffffffffffffffffffffffffffffffffffffffffffffffffff0483118215151615613c3657613c356131e6565b5b828202905092915050565b6000613c4c8261283e565b91506000821415613c6057613c5f6131e6565b5b600182039050919050565b7f537472696e67733a20686578206c656e67746820696e73756666696369656e74600082015250565b6000613ca160208361278e565b9150613cac82613c6b565b602082019050919050565b60006020820190508181036000830152613cd081613c94565b905091905056fea264697066735822122057b775b4d190870ef3033ff0a04cbc0da1aa6e4908a889cb70166704e689482b64736f6c63430008090033",
  "linkReferences": {},
  "deployedLinkReferences": {}
}