{
  "_format": "hh-sol-artifact-1",
  "contractName": "CryptoPenguin",
  "sourceName": "contracts/CryptoPenguin.sol",
  "abi": [
    {
      "inputs": [
        {
          "internalType": "string",
          "name": "baseURI",
          "type": "string"
        }
      ],
      "stateMutability": "nonpayable",
      "type": "constructor"
    },
    {
      "anonymous": false,
      "inputs": [
        {
          "indexed": true,
          "internalType": "address",
          "name": "owner",
          "type": "address"
        },
        {
          "indexed": true,
          "internalType": "address",
          "name": "approved",
          "type": "address"
        },
        {
          "indexed": true,
          "internalType": "uint256",
          "name": "tokenId",
          "type": "uint256"
        }
      ],
      "name": "Approval",
      "type": "event"
    },
    {
      "anonymous": false,
      "inputs": [
        {
          "indexed": true,
          "internalType": "address",
          "name": "owner",
          "type": "address"
        },
        {
          "indexed": true,
          "internalType": "address",
          "name": "operator",
          "type": "address"
        },
        {
          "indexed": false,
          "internalType": "bool",
          "name": "approved",
          "type": "bool"
        }
      ],
      "name": "ApprovalForAll",
      "type": "event"
    },
    {
      "anonymous": false,
      "inputs": [
        {
          "indexed": true,
          "internalType": "bytes32",
          "name": "role",
          "type": "bytes32"
        },
        {
          "indexed": true,
          "internalType": "bytes32",
          "name": "previousAdminRole",
          "type": "bytes32"
        },
        {
          "indexed": true,
          "internalType": "bytes32",
          "name": "newAdminRole",
          "type": "bytes32"
        }
      ],
      "name": "RoleAdminChanged",
      "type": "event"
    },
    {
      "anonymous": false,
      "inputs": [
        {
          "indexed": true,
          "internalType": "bytes32",
          "name": "role",
          "type": "bytes32"
        },
        {
          "indexed": true,
          "internalType": "address",
          "name": "account",
          "type": "address"
        },
        {
          "indexed": true,
          "internalType": "address",
          "name": "sender",
          "type": "address"
        }
      ],
      "name": "RoleGranted",
      "type": "event"
    },
    {
      "anonymous": false,
      "inputs": [
        {
          "indexed": true,
          "internalType": "bytes32",
          "name": "role",
          "type": "bytes32"
        },
        {
          "indexed": true,
          "internalType": "address",
          "name": "account",
          "type": "address"
        },
        {
          "indexed": true,
          "internalType": "address",
          "name": "sender",
          "type": "address"
        }
      ],
      "name": "RoleRevoked",
      "type": "event"
    },
    {
      "anonymous": false,
      "inputs": [
        {
          "indexed": true,
          "internalType": "address",
          "name": "from",
          "type": "address"
        },
        {
          "indexed": true,
          "internalType": "address",
          "name": "to",
          "type": "address"
        },
        {
          "indexed": true,
          "internalType": "uint256",
          "name": "tokenId",
          "type": "uint256"
        }
      ],
      "name": "Transfer",
      "type": "event"
    },
    {
      "inputs": [],
      "name": "ADMIN_ROLE",
      "outputs": [
        {
          "internalType": "bytes32",
          "name": "",
          "type": "bytes32"
        }
      ],
      "stateMutability": "view",
      "type": "function"
    },
    {
      "inputs": [],
      "name": "DEFAULT_ADMIN_ROLE",
      "outputs": [
        {
          "internalType": "bytes32",
          "name": "",
          "type": "bytes32"
        }
      ],
      "stateMutability": "view",
      "type": "function"
    },
    {
      "inputs": [],
      "name": "MAX_PENGUINS",
      "outputs": [
        {
          "internalType": "uint256",
          "name": "",
          "type": "uint256"
        }
      ],
      "stateMutability": "view",
      "type": "function"
    },
    {
      "inputs": [
        {
          "internalType": "address",
          "name": "to",
          "type": "address"
        },
        {
          "internalType": "uint256",
          "name": "tokenId",
          "type": "uint256"
        }
      ],
      "name": "approve",
      "outputs": [],
      "stateMutability": "nonpayable",
      "type": "function"
    },
    {
      "inputs": [
        {
          "internalType": "address",
          "name": "owner",
          "type": "address"
        }
      ],
      "name": "balanceOf",
      "outputs": [
        {
          "internalType": "uint256",
          "name": "",
          "type": "uint256"
        }
      ],
      "stateMutability": "view",
      "type": "function"
    },
    {
      "inputs": [
        {
          "internalType": "uint256",
          "name": "tokenId",
          "type": "uint256"
        }
      ],
      "name": "getApproved",
      "outputs": [
        {
          "internalType": "address",
          "name": "",
          "type": "address"
        }
      ],
      "stateMutability": "view",
      "type": "function"
    },
    {
      "inputs": [],
      "name": "getBaseURI",
      "outputs": [
        {
          "internalType": "string",
          "name": "",
          "type": "string"
        }
      ],
      "stateMutability": "view",
      "type": "function"
    },
    {
      "inputs": [
        {
          "internalType": "bytes32",
          "name": "role",
          "type": "bytes32"
        }
      ],
      "name": "getRoleAdmin",
      "outputs": [
        {
          "internalType": "bytes32",
          "name": "",
          "type": "bytes32"
        }
      ],
      "stateMutability": "view",
      "type": "function"
    },
    {
      "inputs": [
        {
          "internalType": "address",
          "name": "owner",
          "type": "address"
        }
      ],
      "name": "getTokensByOwner",
      "outputs": [
        {
          "internalType": "uint256[]",
          "name": "",
          "type": "uint256[]"
        }
      ],
      "stateMutability": "view",
      "type": "function"
    },
    {
      "inputs": [
        {
          "internalType": "bytes32",
          "name": "role",
          "type": "bytes32"
        },
        {
          "internalType": "address",
          "name": "account",
          "type": "address"
        }
      ],
      "name": "grantRole",
      "outputs": [],
      "stateMutability": "nonpayable",
      "type": "function"
    },
    {
      "inputs": [
        {
          "internalType": "bytes32",
          "name": "role",
          "type": "bytes32"
        },
        {
          "internalType": "address",
          "name": "account",
          "type": "address"
        }
      ],
      "name": "hasRole",
      "outputs": [
        {
          "internalType": "bool",
          "name": "",
          "type": "bool"
        }
      ],
      "stateMutability": "view",
      "type": "function"
    },
    {
      "inputs": [
        {
          "internalType": "address",
          "name": "owner",
          "type": "address"
        },
        {
          "internalType": "address",
          "name": "operator",
          "type": "address"
        }
      ],
      "name": "isApprovedForAll",
      "outputs": [
        {
          "internalType": "bool",
          "name": "",
          "type": "bool"
        }
      ],
      "stateMutability": "view",
      "type": "function"
    },
    {
      "inputs": [
        {
          "internalType": "address",
          "name": "recipient",
          "type": "address"
        }
      ],
      "name": "mint",
      "outputs": [
        {
          "internalType": "uint256",
          "name": "",
          "type": "uint256"
        }
      ],
      "stateMutability": "nonpayable",
      "type": "function"
    },
    {
      "inputs": [],
      "name": "name",
      "outputs": [
        {
          "internalType": "string",
          "name": "",
          "type": "string"
        }
      ],
      "stateMutability": "view",
      "type": "function"
    },
    {
      "inputs": [
        {
          "internalType": "uint256",
          "name": "tokenId",
          "type": "uint256"
        }
      ],
      "name": "ownerOf",
      "outputs": [
        {
          "internalType": "address",
          "name": "",
          "type": "address"
        }
      ],
      "stateMutability": "view",
      "type": "function"
    },
    {
      "inputs": [
        {
          "internalType": "bytes32",
          "name": "role",
          "type": "bytes32"
        },
        {
          "internalType": "address",
          "name": "account",
          "type": "address"
        }
      ],
      "name": "renounceRole",
      "outputs": [],
      "stateMutability": "nonpayable",
      "type": "function"
    },
    {
      "inputs": [
        {
          "internalType": "bytes32",
          "name": "role",
          "type": "bytes32"
        },
        {
          "internalType": "address",
          "name": "account",
          "type": "address"
        }
      ],
      "name": "revokeRole",
      "outputs": [],
      "stateMutability": "nonpayable",
      "type": "function"
    },
    {
      "inputs": [
        {
          "internalType": "address",
          "name": "from",
          "type": "address"
        },
        {
          "internalType": "address",
          "name": "to",
          "type": "address"
        },
        {
          "internalType": "uint256",
          "name": "tokenId",
          "type": "uint256"
        }
      ],
      "name": "safeTransferFrom",
      "outputs": [],
      "stateMutability": "nonpayable",
      "type": "function"
    },
    {
      "inputs": [
        {
          "internalType": "address",
          "name": "from",
          "type": "address"
        },
        {
          "internalType": "address",
          "name": "to",
          "type": "address"
        },
        {
          "internalType": "uint256",
          "name": "tokenId",
          "type": "uint256"
        },
        {
          "internalType": "bytes",
          "name": "data",
          "type": "bytes"
        }
      ],
      "name": "safeTransferFrom",
      "outputs": [],
      "stateMutability": "nonpayable",
      "type": "function"
    },
    {
      "inputs": [
        {
          "internalType": "address",
          "name": "operator",
          "type": "address"
        },
        {
          "internalType": "bool",
          "name": "approved",
          "type": "bool"
        }
      ],
      "name": "setApprovalForAll",
      "outputs": [],
      "stateMutability": "nonpayable",
      "type": "function"
    },
    {
      "inputs": [
        {
          "internalType": "string",
          "name": "baseURI",
          "type": "string"
        }
      ],
      "name": "setBaseURI",
      "outputs": [],
      "stateMutability": "nonpayable",
      "type": "function"
    },
    {
      "inputs": [
        {
          "internalType": "bytes4",
          "name": "interfaceId",
          "type": "bytes4"
        }
      ],
      "name": "supportsInterface",
      "outputs": [
        {
          "internalType": "bool",
          "name": "",
          "type": "bool"
        }
      ],
      "stateMutability": "view",
      "type": "function"
    },
    {
      "inputs": [],
      "name": "symbol",
      "outputs": [
        {
          "internalType": "string",
          "name": "",
          "type": "string"
        }
      ],
      "stateMutability": "view",
      "type": "function"
    },
    {
      "inputs": [
        {
          "internalType": "uint256",
          "name": "tokenId",
          "type": "uint256"
        }
      ],
      "name": "tokenURI",
      "outputs": [
        {
          "internalType": "string",
          "name": "",
          "type": "string"
        }
      ],
      "stateMutability": "view",
      "type": "function"
    },
    {
      "inputs": [
        {
          "internalType": "address",
          "name": "from",
          "type": "address"
        },
        {
          "internalType": "address",
          "name": "to",
          "type": "address"
        },
        {
          "internalType": "uint256",
          "name": "tokenId",
          "type": "uint256"
        }
      ],
      "name": "transfer",
      "outputs": [],
      "stateMutability": "nonpayable",
      "type": "function"
    },
    {
      "inputs": [
        {
          "internalType": "address",
          "name": "from",
          "type": "address"
        },
        {
          "internalType": "address",
          "name": "to",
          "type": "address"
        },
        {
          "internalType": "uint256",
          "name": "tokenId",
          "type": "uint256"
        }
      ],
      "name": "transferFrom",
      "outputs": [],
      "stateMutability": "nonpayable",
      "type": "function"
    }
  ],
  "bytecode": "0x60806040523480156200001157600080fd5b506040516200430a3803806200430a83398181016040528101906200003791906200051a565b6040518060400160405280600d81526020017f43727970746f50656e6775696e000000000000000000000000000000000000008152506040518060400160405280600281526020017f43500000000000000000000000000000000000000000000000000000000000008152508160009080519060200190620000bb929190620002cd565b508060019080519060200190620000d4929190620002cd565b505050620000e8816200013660201b60201c565b620000fd6000801b336200015260201b60201c565b6200012f7fa49807205ce4d355092ef5a8a18f56e8913cf4a201fbe287825b095693c21775336200015260201b60201c565b50620005d0565b80600990805190602001906200014e929190620002cd565b5050565b6200016482826200016860201b60201c565b5050565b6200017a82826200025a60201b60201c565b620002565760016007600084815260200190815260200160002060000160008373ffffffffffffffffffffffffffffffffffffffff1673ffffffffffffffffffffffffffffffffffffffff16815260200190815260200160002060006101000a81548160ff021916908315150217905550620001fb620002c560201b60201c565b73ffffffffffffffffffffffffffffffffffffffff168173ffffffffffffffffffffffffffffffffffffffff16837f2f8788117e7eff1d82e926ec794901d17c78024a50270940304540a733656f0d60405160405180910390a45b5050565b60006007600084815260200190815260200160002060000160008373ffffffffffffffffffffffffffffffffffffffff1673ffffffffffffffffffffffffffffffffffffffff16815260200190815260200160002060009054906101000a900460ff16905092915050565b600033905090565b828054620002db906200059a565b90600052602060002090601f016020900481019282620002ff57600085556200034b565b82601f106200031a57805160ff19168380011785556200034b565b828001600101855582156200034b579182015b828111156200034a5782518255916020019190600101906200032d565b5b5090506200035a91906200035e565b5090565b5b80821115620003795760008160009055506001016200035f565b5090565b6000604051905090565b600080fd5b600080fd5b600080fd5b600080fd5b6000601f19601f8301169050919050565b7f4e487b7100000000000000000000000000000000000000000000000000000000600052604160045260246000fd5b620003e6826200039b565b810181811067ffffffffffffffff82111715620004085762000407620003ac565b5b80604052505050565b60006200041d6200037d565b90506200042b8282620003db565b919050565b600067ffffffffffffffff8211156200044e576200044d620003ac565b5b62000459826200039b565b9050602081019050919050565b60005b838110156200048657808201518184015260208101905062000469565b8381111562000496576000848401525b50505050565b6000620004b3620004ad8462000430565b62000411565b905082815260208101848484011115620004d257620004d162000396565b5b620004df84828562000466565b509392505050565b600082601f830112620004ff57620004fe62000391565b5b8151620005118482602086016200049c565b91505092915050565b60006020828403121562000533576200053262000387565b5b600082015167ffffffffffffffff8111156200055457620005536200038c565b5b6200056284828501620004e7565b91505092915050565b7f4e487b7100000000000000000000000000000000000000000000000000000000600052602260045260246000fd5b60006002820490506001821680620005b357607f821691505b60208210811415620005ca57620005c96200056b565b5b50919050565b613d2a80620005e06000396000f3fe608060405234801561001057600080fd5b506004361061018e5760003560e01c80636a627842116100de578063a217fddf11610097578063beabacc811610071578063beabacc8146104a7578063c87b56dd146104c3578063d547741f146104f3578063e985e9c51461050f5761018e565b8063a217fddf14610451578063a22cb4651461046f578063b88d4fde1461048b5761018e565b80636a6278421461036757806370a0823114610397578063714c5398146103c757806375b238fc146103e557806391d148541461040357806395d89b41146104335761018e565b8063248a9ca31161014b57806340398d671161012557806340398d67146102cf57806342842e0e146102ff57806355f804b31461031b5780636352211e146103375761018e565b8063248a9ca3146102675780632f2ff15d1461029757806336568abe146102b35761018e565b806301ffc9a71461019357806306fdde03146101c3578063081812fc146101e1578063095ea7b3146102115780631b95a0221461022d57806323b872dd1461024b575b600080fd5b6101ad60048036038101906101a89190612718565b61053f565b6040516101ba9190612760565b60405180910390f35b6101cb610551565b6040516101d89190612814565b60405180910390f35b6101fb60048036038101906101f6919061286c565b6105e3565b60405161020891906128da565b60405180910390f35b61022b60048036038101906102269190612921565b610629565b005b610235610741565b6040516102429190612970565b60405180910390f35b6102656004803603810190610260919061298b565b610747565b005b610281600480360381019061027c9190612a14565b6107a7565b60405161028e9190612a50565b60405180910390f35b6102b160048036038101906102ac9190612a6b565b6107c7565b005b6102cd60048036038101906102c89190612a6b565b6107e8565b005b6102e960048036038101906102e49190612aab565b61086b565b6040516102f69190612b96565b60405180910390f35b6103196004803603810190610314919061298b565b610969565b005b61033560048036038101906103309190612ced565b610989565b005b610351600480360381019061034c919061286c565b6109fe565b60405161035e91906128da565b60405180910390f35b610381600480360381019061037c9190612aab565b610a85565b60405161038e9190612970565b60405180910390f35b6103b160048036038101906103ac9190612aab565b610b31565b6040516103be9190612970565b60405180910390f35b6103cf610be9565b6040516103dc9190612814565b60405180910390f35b6103ed610c7b565b6040516103fa9190612a50565b60405180910390f35b61041d60048036038101906104189190612a6b565b610c9f565b60405161042a9190612760565b60405180910390f35b61043b610d0a565b6040516104489190612814565b60405180910390f35b610459610d9c565b6040516104669190612a50565b60405180910390f35b61048960048036038101906104849190612d62565b610da3565b005b6104a560048036038101906104a09190612e43565b610db9565b005b6104c160048036038101906104bc919061298b565b610e1b565b005b6104dd60048036038101906104d8919061286c565b610e74565b6040516104ea9190612814565b60405180910390f35b61050d60048036038101906105089190612a6b565b610f87565b005b61052960048036038101906105249190612ec6565b610fa8565b6040516105369190612760565b60405180910390f35b600061054a8261103c565b9050919050565b60606000805461056090612f35565b80601f016020809104026020016040519081016040528092919081815260200182805461058c90612f35565b80156105d95780601f106105ae576101008083540402835291602001916105d9565b820191906000526020600020905b8154815290600101906020018083116105bc57829003601f168201915b5050505050905090565b60006105ee826110b6565b6004600083815260200190815260200160002060009054906101000a900473ffffffffffffffffffffffffffffffffffffffff169050919050565b6000610634826109fe565b90508073ffffffffffffffffffffffffffffffffffffffff168373ffffffffffffffffffffffffffffffffffffffff1614156106a5576040517f08c379a000000000000000000000000000000000000000000000000000000000815260040161069c90612fd9565b60405180910390fd5b8073ffffffffffffffffffffffffffffffffffffffff166106c4611101565b73ffffffffffffffffffffffffffffffffffffffff1614806106f357506106f2816106ed611101565b610fa8565b5b610732576040517f08c379a00000000000000000000000000000000000000000000000000000000081526004016107299061306b565b60405180910390fd5b61073c8383611109565b505050565b6103e881565b610758610752611101565b826111c2565b610797576040517f08c379a000000000000000000000000000000000000000000000000000000000815260040161078e906130fd565b60405180910390fd5b6107a2838383611257565b505050565b600060076000838152602001908152602001600020600101549050919050565b6107d0826107a7565b6107d981611551565b6107e38383611565565b505050565b6107f0611101565b73ffffffffffffffffffffffffffffffffffffffff168173ffffffffffffffffffffffffffffffffffffffff161461085d576040517f08c379a00000000000000000000000000000000000000000000000000000000081526004016108549061318f565b60405180910390fd5b6108678282611646565b5050565b6060600061087883610b31565b905060008167ffffffffffffffff81111561089657610895612bc2565b5b6040519080825280602002602001820160405280156108c45781602001602082028036833780820191505090505b509050600080600190505b6108d96008611728565b811161095d578573ffffffffffffffffffffffffffffffffffffffff166108ff826109fe565b73ffffffffffffffffffffffffffffffffffffffff16141561094a578083838151811061092f5761092e6131af565b5b60200260200101818152505081806109469061320d565b9250505b80806109559061320d565b9150506108cf565b50819350505050919050565b61098483838360405180602001604052806000815250610db9565b505050565b6109b37fa49807205ce4d355092ef5a8a18f56e8913cf4a201fbe287825b095693c2177533610c9f565b6109f2576040517f08c379a00000000000000000000000000000000000000000000000000000000081526004016109e9906132c8565b60405180910390fd5b6109fb81611736565b50565b600080610a0a83611750565b9050600073ffffffffffffffffffffffffffffffffffffffff168173ffffffffffffffffffffffffffffffffffffffff161415610a7c576040517f08c379a0000000000000000000000000000000000000000000000000000000008152600401610a7390613334565b60405180910390fd5b80915050919050565b60006103e8610a946008611728565b10610ad4576040517f08c379a0000000000000000000000000000000000000000000000000000000008152600401610acb906133c6565b60405180910390fd5b610ade600861178d565b6000610aea6008611728565b9050610af683826117a3565b610b2881610b026119c1565b83604051602001610b1492919061348f565b6040516020818303038152906040526119d8565b80915050919050565b60008073ffffffffffffffffffffffffffffffffffffffff168273ffffffffffffffffffffffffffffffffffffffff161415610ba2576040517f08c379a0000000000000000000000000000000000000000000000000000000008152600401610b9990613534565b60405180910390fd5b600360008373ffffffffffffffffffffffffffffffffffffffff1673ffffffffffffffffffffffffffffffffffffffff168152602001908152602001600020549050919050565b606060098054610bf890612f35565b80601f0160208091040260200160405190810160405280929190818152602001828054610c2490612f35565b8015610c715780601f10610c4657610100808354040283529160200191610c71565b820191906000526020600020905b815481529060010190602001808311610c5457829003601f168201915b5050505050905090565b7fa49807205ce4d355092ef5a8a18f56e8913cf4a201fbe287825b095693c2177581565b60006007600084815260200190815260200160002060000160008373ffffffffffffffffffffffffffffffffffffffff1673ffffffffffffffffffffffffffffffffffffffff16815260200190815260200160002060009054906101000a900460ff16905092915050565b606060018054610d1990612f35565b80601f0160208091040260200160405190810160405280929190818152602001828054610d4590612f35565b8015610d925780601f10610d6757610100808354040283529160200191610d92565b820191906000526020600020905b815481529060010190602001808311610d7557829003601f168201915b5050505050905090565b6000801b81565b610db5610dae611101565b8383611a4c565b5050565b610dca610dc4611101565b836111c2565b610e09576040517f08c379a0000000000000000000000000000000000000000000000000000000008152600401610e00906130fd565b60405180910390fd5b610e1584848484611bb9565b50505050565b610e2533826111c2565b610e64576040517f08c379a0000000000000000000000000000000000000000000000000000000008152600401610e5b906135c6565b60405180910390fd5b610e6f838383611257565b505050565b6060610e7f826110b6565b6000600660008481526020019081526020016000208054610e9f90612f35565b80601f0160208091040260200160405190810160405280929190818152602001828054610ecb90612f35565b8015610f185780601f10610eed57610100808354040283529160200191610f18565b820191906000526020600020905b815481529060010190602001808311610efb57829003601f168201915b505050505090506000610f296119c1565b9050600081511415610f3f578192505050610f82565b600082511115610f74578082604051602001610f5c9291906135e6565b60405160208183030381529060405292505050610f82565b610f7d84611c15565b925050505b919050565b610f90826107a7565b610f9981611551565b610fa38383611646565b505050565b6000600560008473ffffffffffffffffffffffffffffffffffffffff1673ffffffffffffffffffffffffffffffffffffffff16815260200190815260200160002060008373ffffffffffffffffffffffffffffffffffffffff1673ffffffffffffffffffffffffffffffffffffffff16815260200190815260200160002060009054906101000a900460ff16905092915050565b60007f7965db0b000000000000000000000000000000000000000000000000000000007bffffffffffffffffffffffffffffffffffffffffffffffffffffffff1916827bffffffffffffffffffffffffffffffffffffffffffffffffffffffff191614806110af57506110ae82611c7d565b5b9050919050565b6110bf81611d5f565b6110fe576040517f08c379a00000000000000000000000000000000000000000000000000000000081526004016110f590613334565b60405180910390fd5b50565b600033905090565b816004600083815260200190815260200160002060006101000a81548173ffffffffffffffffffffffffffffffffffffffff021916908373ffffffffffffffffffffffffffffffffffffffff160217905550808273ffffffffffffffffffffffffffffffffffffffff1661117c836109fe565b73ffffffffffffffffffffffffffffffffffffffff167f8c5be1e5ebec7d5bd14f71427d1e84f3dd0314c0f7b2291e5b200ac8c7c3b92560405160405180910390a45050565b6000806111ce836109fe565b90508073ffffffffffffffffffffffffffffffffffffffff168473ffffffffffffffffffffffffffffffffffffffff161480611210575061120f8185610fa8565b5b8061124e57508373ffffffffffffffffffffffffffffffffffffffff16611236846105e3565b73ffffffffffffffffffffffffffffffffffffffff16145b91505092915050565b8273ffffffffffffffffffffffffffffffffffffffff16611277826109fe565b73ffffffffffffffffffffffffffffffffffffffff16146112cd576040517f08c379a00000000000000000000000000000000000000000000000000000000081526004016112c49061367c565b60405180910390fd5b600073ffffffffffffffffffffffffffffffffffffffff168273ffffffffffffffffffffffffffffffffffffffff16141561133d576040517f08c379a00000000000000000000000000000000000000000000000000000000081526004016113349061370e565b60405180910390fd5b61134a8383836001611da0565b8273ffffffffffffffffffffffffffffffffffffffff1661136a826109fe565b73ffffffffffffffffffffffffffffffffffffffff16146113c0576040517f08c379a00000000000000000000000000000000000000000000000000000000081526004016113b79061367c565b60405180910390fd5b6004600082815260200190815260200160002060006101000a81549073ffffffffffffffffffffffffffffffffffffffff02191690556001600360008573ffffffffffffffffffffffffffffffffffffffff1673ffffffffffffffffffffffffffffffffffffffff168152602001908152602001600020600082825403925050819055506001600360008473ffffffffffffffffffffffffffffffffffffffff1673ffffffffffffffffffffffffffffffffffffffff16815260200190815260200160002060008282540192505081905550816002600083815260200190815260200160002060006101000a81548173ffffffffffffffffffffffffffffffffffffffff021916908373ffffffffffffffffffffffffffffffffffffffff160217905550808273ffffffffffffffffffffffffffffffffffffffff168473ffffffffffffffffffffffffffffffffffffffff167fddf252ad1be2c89b69c2b068fc378daa952ba7f163c4a11628f55a4df523b3ef60405160405180910390a461154c8383836001611ec6565b505050565b6115628161155d611101565b611ecc565b50565b61156f8282610c9f565b6116425760016007600084815260200190815260200160002060000160008373ffffffffffffffffffffffffffffffffffffffff1673ffffffffffffffffffffffffffffffffffffffff16815260200190815260200160002060006101000a81548160ff0219169083151502179055506115e7611101565b73ffffffffffffffffffffffffffffffffffffffff168173ffffffffffffffffffffffffffffffffffffffff16837f2f8788117e7eff1d82e926ec794901d17c78024a50270940304540a733656f0d60405160405180910390a45b5050565b6116508282610c9f565b156117245760006007600084815260200190815260200160002060000160008373ffffffffffffffffffffffffffffffffffffffff1673ffffffffffffffffffffffffffffffffffffffff16815260200190815260200160002060006101000a81548160ff0219169083151502179055506116c9611101565b73ffffffffffffffffffffffffffffffffffffffff168173ffffffffffffffffffffffffffffffffffffffff16837ff6391f5c32d9c69d2a47ea670b442974b53935d1edc7fd64eb21e047a839171b60405160405180910390a45b5050565b600081600001549050919050565b806009908051906020019061174c929190612609565b5050565b60006002600083815260200190815260200160002060009054906101000a900473ffffffffffffffffffffffffffffffffffffffff169050919050565b6001816000016000828254019250508190555050565b600073ffffffffffffffffffffffffffffffffffffffff168273ffffffffffffffffffffffffffffffffffffffff161415611813576040517f08c379a000000000000000000000000000000000000000000000000000000000815260040161180a9061377a565b60405180910390fd5b61181c81611d5f565b1561185c576040517f08c379a0000000000000000000000000000000000000000000000000000000008152600401611853906137e6565b60405180910390fd5b61186a600083836001611da0565b61187381611d5f565b156118b3576040517f08c379a00000000000000000000000000000000000000000000000000000000081526004016118aa906137e6565b60405180910390fd5b6001600360008473ffffffffffffffffffffffffffffffffffffffff1673ffffffffffffffffffffffffffffffffffffffff16815260200190815260200160002060008282540192505081905550816002600083815260200190815260200160002060006101000a81548173ffffffffffffffffffffffffffffffffffffffff021916908373ffffffffffffffffffffffffffffffffffffffff160217905550808273ffffffffffffffffffffffffffffffffffffffff16600073ffffffffffffffffffffffffffffffffffffffff167fddf252ad1be2c89b69c2b068fc378daa952ba7f163c4a11628f55a4df523b3ef60405160405180910390a46119bd600083836001611ec6565b5050565b606060405180602001604052806000815250905090565b6119e182611d5f565b611a20576040517f08c379a0000000000000000000000000000000000000000000000000000000008152600401611a1790613878565b60405180910390fd5b80600660008481526020019081526020016000209080519060200190611a47929190612609565b505050565b8173ffffffffffffffffffffffffffffffffffffffff168373ffffffffffffffffffffffffffffffffffffffff161415611abb576040517f08c379a0000000000000000000000000000000000000000000000000000000008152600401611ab2906138e4565b60405180910390fd5b80600560008573ffffffffffffffffffffffffffffffffffffffff1673ffffffffffffffffffffffffffffffffffffffff16815260200190815260200160002060008473ffffffffffffffffffffffffffffffffffffffff1673ffffffffffffffffffffffffffffffffffffffff16815260200190815260200160002060006101000a81548160ff0219169083151502179055508173ffffffffffffffffffffffffffffffffffffffff168373ffffffffffffffffffffffffffffffffffffffff167f17307eab39ab6107e8899845ad3d59bd9653f200f220920489ca2b5937696c3183604051611bac9190612760565b60405180910390a3505050565b611bc4848484611257565b611bd084848484611f51565b611c0f576040517f08c379a0000000000000000000000000000000000000000000000000000000008152600401611c0690613976565b60405180910390fd5b50505050565b6060611c20826110b6565b6000611c2a6119c1565b90506000815111611c4a5760405180602001604052806000815250611c75565b80611c54846120e8565b604051602001611c659291906135e6565b6040516020818303038152906040525b915050919050565b60007f80ac58cd000000000000000000000000000000000000000000000000000000007bffffffffffffffffffffffffffffffffffffffffffffffffffffffff1916827bffffffffffffffffffffffffffffffffffffffffffffffffffffffff19161480611d4857507f5b5e139f000000000000000000000000000000000000000000000000000000007bffffffffffffffffffffffffffffffffffffffffffffffffffffffff1916827bffffffffffffffffffffffffffffffffffffffffffffffffffffffff1916145b80611d585750611d57826121c0565b5b9050919050565b60008073ffffffffffffffffffffffffffffffffffffffff16611d8183611750565b73ffffffffffffffffffffffffffffffffffffffff1614159050919050565b6001811115611ec057600073ffffffffffffffffffffffffffffffffffffffff168473ffffffffffffffffffffffffffffffffffffffff1614611e345780600360008673ffffffffffffffffffffffffffffffffffffffff1673ffffffffffffffffffffffffffffffffffffffff1681526020019081526020016000206000828254611e2c9190613996565b925050819055505b600073ffffffffffffffffffffffffffffffffffffffff168373ffffffffffffffffffffffffffffffffffffffff1614611ebf5780600360008573ffffffffffffffffffffffffffffffffffffffff1673ffffffffffffffffffffffffffffffffffffffff1681526020019081526020016000206000828254611eb791906139ca565b925050819055505b5b50505050565b50505050565b611ed68282610c9f565b611f4d57611ee38161222a565b611ef18360001c6020612257565b604051602001611f02929190613ab8565b6040516020818303038152906040526040517f08c379a0000000000000000000000000000000000000000000000000000000008152600401611f449190612814565b60405180910390fd5b5050565b6000611f728473ffffffffffffffffffffffffffffffffffffffff16612493565b156120db578373ffffffffffffffffffffffffffffffffffffffff1663150b7a02611f9b611101565b8786866040518563ffffffff1660e01b8152600401611fbd9493929190613b47565b602060405180830381600087803b158015611fd757600080fd5b505af192505050801561200857506040513d601f19601f820116820180604052508101906120059190613ba8565b60015b61208b573d8060008114612038576040519150601f19603f3d011682016040523d82523d6000602084013e61203d565b606091505b50600081511415612083576040517f08c379a000000000000000000000000000000000000000000000000000000000815260040161207a90613976565b60405180910390fd5b805181602001fd5b63150b7a0260e01b7bffffffffffffffffffffffffffffffffffffffffffffffffffffffff1916817bffffffffffffffffffffffffffffffffffffffffffffffffffffffff1916149150506120e0565b600190505b949350505050565b6060600060016120f7846124b6565b01905060008167ffffffffffffffff81111561211657612115612bc2565b5b6040519080825280601f01601f1916602001820160405280156121485781602001600182028036833780820191505090505b509050600082602001820190505b6001156121b5578080600190039150507f3031323334353637383961626364656600000000000000000000000000000000600a86061a8153600a858161219f5761219e613bd5565b5b04945060008514156121b0576121b5565b612156565b819350505050919050565b60007f01ffc9a7000000000000000000000000000000000000000000000000000000007bffffffffffffffffffffffffffffffffffffffffffffffffffffffff1916827bffffffffffffffffffffffffffffffffffffffffffffffffffffffff1916149050919050565b60606122508273ffffffffffffffffffffffffffffffffffffffff16601460ff16612257565b9050919050565b60606000600283600261226a9190613c04565b61227491906139ca565b67ffffffffffffffff81111561228d5761228c612bc2565b5b6040519080825280601f01601f1916602001820160405280156122bf5781602001600182028036833780820191505090505b5090507f3000000000000000000000000000000000000000000000000000000000000000816000815181106122f7576122f66131af565b5b60200101907effffffffffffffffffffffffffffffffffffffffffffffffffffffffffffff1916908160001a9053507f78000000000000000000000000000000000000000000000000000000000000008160018151811061235b5761235a6131af565b5b60200101907effffffffffffffffffffffffffffffffffffffffffffffffffffffffffffff1916908160001a9053506000600184600261239b9190613c04565b6123a591906139ca565b90505b6001811115612445577f3031323334353637383961626364656600000000000000000000000000000000600f8616601081106123e7576123e66131af565b5b1a60f81b8282815181106123fe576123fd6131af565b5b60200101907effffffffffffffffffffffffffffffffffffffffffffffffffffffffffffff1916908160001a905350600485901c94508061243e90613c5e565b90506123a8565b5060008414612489576040517f08c379a000000000000000000000000000000000000000000000000000000000815260040161248090613cd4565b60405180910390fd5b8091505092915050565b6000808273ffffffffffffffffffffffffffffffffffffffff163b119050919050565b600080600090507a184f03e93ff9f4daa797ed6e38ed64bf6a1f0100000000000000008310612514577a184f03e93ff9f4daa797ed6e38ed64bf6a1f010000000000000000838161250a57612509613bd5565b5b0492506040810190505b6d04ee2d6d415b85acef81000000008310612551576d04ee2d6d415b85acef8100000000838161254757612546613bd5565b5b0492506020810190505b662386f26fc10000831061258057662386f26fc10000838161257657612575613bd5565b5b0492506010810190505b6305f5e10083106125a9576305f5e100838161259f5761259e613bd5565b5b0492506008810190505b61271083106125ce5761271083816125c4576125c3613bd5565b5b0492506004810190505b606483106125f157606483816125e7576125e6613bd5565b5b0492506002810190505b600a8310612600576001810190505b80915050919050565b82805461261590612f35565b90600052602060002090601f016020900481019282612637576000855561267e565b82601f1061265057805160ff191683800117855561267e565b8280016001018555821561267e579182015b8281111561267d578251825591602001919060010190612662565b5b50905061268b919061268f565b5090565b5b808211156126a8576000816000905550600101612690565b5090565b6000604051905090565b600080fd5b600080fd5b60007fffffffff0000000000000000000000000000000000000000000000000000000082169050919050565b6126f5816126c0565b811461270057600080fd5b50565b600081359050612712816126ec565b92915050565b60006020828403121561272e5761272d6126b6565b5b600061273c84828501612703565b91505092915050565b60008115159050919050565b61275a81612745565b82525050565b60006020820190506127756000830184612751565b92915050565b600081519050919050565b600082825260208201905092915050565b60005b838110156127b557808201518184015260208101905061279a565b838111156127c4576000848401525b50505050565b6000601f19601f8301169050919050565b60006127e68261277b565b6127f08185612786565b9350612800818560208601612797565b612809816127ca565b840191505092915050565b6000602082019050818103600083015261282e81846127db565b905092915050565b6000819050919050565b61284981612836565b811461285457600080fd5b50565b60008135905061286681612840565b92915050565b600060208284031215612882576128816126b6565b5b600061289084828501612857565b91505092915050565b600073ffffffffffffffffffffffffffffffffffffffff82169050919050565b60006128c482612899565b9050919050565b6128d4816128b9565b82525050565b60006020820190506128ef60008301846128cb565b92915050565b6128fe816128b9565b811461290957600080fd5b50565b60008135905061291b816128f5565b92915050565b60008060408385031215612938576129376126b6565b5b60006129468582860161290c565b925050602061295785828601612857565b9150509250929050565b61296a81612836565b82525050565b60006020820190506129856000830184612961565b92915050565b6000806000606084860312156129a4576129a36126b6565b5b60006129b28682870161290c565b93505060206129c38682870161290c565b92505060406129d486828701612857565b9150509250925092565b6000819050919050565b6129f1816129de565b81146129fc57600080fd5b50565b600081359050612a0e816129e8565b92915050565b600060208284031215612a2a57612a296126b6565b5b6000612a38848285016129ff565b91505092915050565b612a4a816129de565b82525050565b6000602082019050612a656000830184612a41565b92915050565b60008060408385031215612a8257612a816126b6565b5b6000612a90858286016129ff565b9250506020612aa18582860161290c565b9150509250929050565b600060208284031215612ac157612ac06126b6565b5b6000612acf8482850161290c565b91505092915050565b600081519050919050565b600082825260208201905092915050565b6000819050602082019050919050565b612b0d81612836565b82525050565b6000612b1f8383612b04565b60208301905092915050565b6000602082019050919050565b6000612b4382612ad8565b612b4d8185612ae3565b9350612b5883612af4565b8060005b83811015612b89578151612b708882612b13565b9750612b7b83612b2b565b925050600181019050612b5c565b5085935050505092915050565b60006020820190508181036000830152612bb08184612b38565b905092915050565b600080fd5b600080fd5b7f4e487b7100000000000000000000000000000000000000000000000000000000600052604160045260246000fd5b612bfa826127ca565b810181811067ffffffffffffffff82111715612c1957612c18612bc2565b5b80604052505050565b6000612c2c6126ac565b9050612c388282612bf1565b919050565b600067ffffffffffffffff821115612c5857612c57612bc2565b5b612c61826127ca565b9050602081019050919050565b82818337600083830152505050565b6000612c90612c8b84612c3d565b612c22565b905082815260208101848484011115612cac57612cab612bbd565b5b612cb7848285612c6e565b509392505050565b600082601f830112612cd457612cd3612bb8565b5b8135612ce4848260208601612c7d565b91505092915050565b600060208284031215612d0357612d026126b6565b5b600082013567ffffffffffffffff811115612d2157612d206126bb565b5b612d2d84828501612cbf565b91505092915050565b612d3f81612745565b8114612d4a57600080fd5b50565b600081359050612d5c81612d36565b92915050565b60008060408385031215612d7957612d786126b6565b5b6000612d878582860161290c565b9250506020612d9885828601612d4d565b9150509250929050565b600067ffffffffffffffff821115612dbd57612dbc612bc2565b5b612dc6826127ca565b9050602081019050919050565b6000612de6612de184612da2565b612c22565b905082815260208101848484011115612e0257612e01612bbd565b5b612e0d848285612c6e565b509392505050565b600082601f830112612e2a57612e29612bb8565b5b8135612e3a848260208601612dd3565b91505092915050565b60008060008060808587031215612e5d57612e5c6126b6565b5b6000612e6b8782880161290c565b9450506020612e7c8782880161290c565b9350506040612e8d87828801612857565b925050606085013567ffffffffffffffff811115612eae57612ead6126bb565b5b612eba87828801612e15565b91505092959194509250565b60008060408385031215612edd57612edc6126b6565b5b6000612eeb8582860161290c565b9250506020612efc8582860161290c565b9150509250929050565b7f4e487b7100000000000000000000000000000000000000000000000000000000600052602260045260246000fd5b60006002820490506001821680612f4d57607f821691505b60208210811415612f6157612f60612f06565b5b50919050565b7f4552433732313a20617070726f76616c20746f2063757272656e74206f776e6560008201527f7200000000000000000000000000000000000000000000000000000000000000602082015250565b6000612fc3602183612786565b9150612fce82612f67565b604082019050919050565b60006020820190508181036000830152612ff281612fb6565b9050919050565b7f4552433732313a20617070726f76652063616c6c6572206973206e6f7420746f60008201527f6b656e206f776e6572206f7220617070726f76656420666f7220616c6c000000602082015250565b6000613055603d83612786565b915061306082612ff9565b604082019050919050565b6000602082019050818103600083015261308481613048565b9050919050565b7f4552433732313a2063616c6c6572206973206e6f7420746f6b656e206f776e6560008201527f72206f7220617070726f76656400000000000000000000000000000000000000602082015250565b60006130e7602d83612786565b91506130f28261308b565b604082019050919050565b60006020820190508181036000830152613116816130da565b9050919050565b7f416363657373436f6e74726f6c3a2063616e206f6e6c792072656e6f756e636560008201527f20726f6c657320666f722073656c660000000000000000000000000000000000602082015250565b6000613179602f83612786565b91506131848261311d565b604082019050919050565b600060208201905081810360008301526131a88161316c565b9050919050565b7f4e487b7100000000000000000000000000000000000000000000000000000000600052603260045260246000fd5b7f4e487b7100000000000000000000000000000000000000000000000000000000600052601160045260246000fd5b600061321882612836565b91507fffffffffffffffffffffffffffffffffffffffffffffffffffffffffffffffff82141561324b5761324a6131de565b5b600182019050919050565b7f43727970746f50656e6775696e3a206d75737420686176652061646d696e207260008201527f6f6c6520746f2073657420626173652055524900000000000000000000000000602082015250565b60006132b2603383612786565b91506132bd82613256565b604082019050919050565b600060208201905081810360008301526132e1816132a5565b9050919050565b7f4552433732313a20696e76616c696420746f6b656e2049440000000000000000600082015250565b600061331e601883612786565b9150613329826132e8565b602082019050919050565b6000602082019050818103600083015261334d81613311565b9050919050565b7f43727970746f50656e6775696e3a206d6178696d756d206e756d626572206f6660008201527f2070656e6775696e732072656163686564000000000000000000000000000000602082015250565b60006133b0603183612786565b91506133bb82613354565b604082019050919050565b600060208201905081810360008301526133df816133a3565b9050919050565b600081905092915050565b60006133fc8261277b565b61340681856133e6565b9350613416818560208601612797565b80840191505092915050565b6000819050919050565b61343d61343882612836565b613422565b82525050565b7f2f6d657461646174612e6a736f6e000000000000000000000000000000000000600082015250565b6000613479600e836133e6565b915061348482613443565b600e82019050919050565b600061349b82856133f1565b91506134a7828461342c565b6020820191506134b68261346c565b91508190509392505050565b7f4552433732313a2061646472657373207a65726f206973206e6f74206120766160008201527f6c6964206f776e65720000000000000000000000000000000000000000000000602082015250565b600061351e602983612786565b9150613529826134c2565b604082019050919050565b6000602082019050818103600083015261354d81613511565b9050919050565b7f43727970746f50656e6775696e3a207472616e736665722063616c6c6572206960008201527f73206e6f74206f776e6572206e6f7220617070726f7665640000000000000000602082015250565b60006135b0603883612786565b91506135bb82613554565b604082019050919050565b600060208201905081810360008301526135df816135a3565b9050919050565b60006135f282856133f1565b91506135fe82846133f1565b91508190509392505050565b7f4552433732313a207472616e736665722066726f6d20696e636f72726563742060008201527f6f776e6572000000000000000000000000000000000000000000000000000000602082015250565b6000613666602583612786565b91506136718261360a565b604082019050919050565b6000602082019050818103600083015261369581613659565b9050919050565b7f4552433732313a207472616e7366657220746f20746865207a65726f2061646460008201527f7265737300000000000000000000000000000000000000000000000000000000602082015250565b60006136f8602483612786565b91506137038261369c565b604082019050919050565b60006020820190508181036000830152613727816136eb565b9050919050565b7f4552433732313a206d696e7420746f20746865207a65726f2061646472657373600082015250565b6000613764602083612786565b915061376f8261372e565b602082019050919050565b6000602082019050818103600083015261379381613757565b9050919050565b7f4552433732313a20746f6b656e20616c7265616479206d696e74656400000000600082015250565b60006137d0601c83612786565b91506137db8261379a565b602082019050919050565b600060208201905081810360008301526137ff816137c3565b9050919050565b7f45524337323155524953746f726167653a2055524920736574206f66206e6f6e60008201527f6578697374656e7420746f6b656e000000000000000000000000000000000000602082015250565b6000613862602e83612786565b915061386d82613806565b604082019050919050565b6000602082019050818103600083015261389181613855565b9050919050565b7f4552433732313a20617070726f766520746f2063616c6c657200000000000000600082015250565b60006138ce601983612786565b91506138d982613898565b602082019050919050565b600060208201905081810360008301526138fd816138c1565b9050919050565b7f4552433732313a207472616e7366657220746f206e6f6e20455243373231526560008201527f63656976657220696d706c656d656e7465720000000000000000000000000000602082015250565b6000613960603283612786565b915061396b82613904565b604082019050919050565b6000602082019050818103600083015261398f81613953565b9050919050565b60006139a182612836565b91506139ac83612836565b9250828210156139bf576139be6131de565b5b828203905092915050565b60006139d582612836565b91506139e083612836565b9250827fffffffffffffffffffffffffffffffffffffffffffffffffffffffffffffffff03821115613a1557613a146131de565b5b828201905092915050565b7f416363657373436f6e74726f6c3a206163636f756e7420000000000000000000600082015250565b6000613a566017836133e6565b9150613a6182613a20565b601782019050919050565b7f206973206d697373696e6720726f6c6520000000000000000000000000000000600082015250565b6000613aa26011836133e6565b9150613aad82613a6c565b601182019050919050565b6000613ac382613a49565b9150613acf82856133f1565b9150613ada82613a95565b9150613ae682846133f1565b91508190509392505050565b600081519050919050565b600082825260208201905092915050565b6000613b1982613af2565b613b238185613afd565b9350613b33818560208601612797565b613b3c816127ca565b840191505092915050565b6000608082019050613b5c60008301876128cb565b613b6960208301866128cb565b613b766040830185612961565b8181036060830152613b888184613b0e565b905095945050505050565b600081519050613ba2816126ec565b92915050565b600060208284031215613bbe57613bbd6126b6565b5b6000613bcc84828501613b93565b91505092915050565b7f4e487b7100000000000000000000000000000000000000000000000000000000600052601260045260246000fd5b6000613c0f82612836565b9150613c1a83612836565b9250817fffffffffffffffffffffffffffffffffffffffffffffffffffffffffffffffff0483118215151615613c5357613c526131de565b5b828202905092915050565b6000613c6982612836565b91506000821415613c7d57613c7c6131de565b5b600182039050919050565b7f537472696e67733a20686578206c656e67746820696e73756666696369656e74600082015250565b6000613cbe602083612786565b9150613cc982613c88565b602082019050919050565b60006020820190508181036000830152613ced81613cb1565b905091905056fea26469706673582212207c05e61de2bb7ef0e7e5b66c649526bbdd258fd2ab2f7e5d8b0c02047b110ad164736f6c63430008090033",
  "linkReferences": {},
  "deployedLinkReferences": {}
}