{
  "_format": "hh-sol-artifact-1",
  "contractName": "CryptoPenguin",
  "sourceName": "contracts/CryptoPenguin.sol",
  "abi": [
    {
      "inputs": [
        {
          "internalType": "string",
          "name": "baseURI",
          "type": "string"
        }
      ],
      "stateMutability": "nonpayable",
      "type": "constructor"
    },
    {
      "anonymous": false,
      "inputs": [
        {
          "indexed": true,
          "internalType": "address",
          "name": "owner",
          "type": "address"
        },
        {
          "indexed": true,
          "internalType": "address",
          "name": "approved",
          "type": "address"
        },
        {
          "indexed": true,
          "internalType": "uint256",
          "name": "tokenId",
          "type": "uint256"
        }
      ],
      "name": "Approval",
      "type": "event"
    },
    {
      "anonymous": false,
      "inputs": [
        {
          "indexed": true,
          "internalType": "address",
          "name": "owner",
          "type": "address"
        },
        {
          "indexed": true,
          "internalType": "address",
          "name": "operator",
          "type": "address"
        },
        {
          "indexed": false,
          "internalType": "bool",
          "name": "approved",
          "type": "bool"
        }
      ],
      "name": "ApprovalForAll",
      "type": "event"
    },
    {
      "anonymous": false,
      "inputs": [
        {
          "indexed": true,
          "internalType": "bytes32",
          "name": "role",
          "type": "bytes32"
        },
        {
          "indexed": true,
          "internalType": "bytes32",
          "name": "previousAdminRole",
          "type": "bytes32"
        },
        {
          "indexed": true,
          "internalType": "bytes32",
          "name": "newAdminRole",
          "type": "bytes32"
        }
      ],
      "name": "RoleAdminChanged",
      "type": "event"
    },
    {
      "anonymous": false,
      "inputs": [
        {
          "indexed": true,
          "internalType": "bytes32",
          "name": "role",
          "type": "bytes32"
        },
        {
          "indexed": true,
          "internalType": "address",
          "name": "account",
          "type": "address"
        },
        {
          "indexed": true,
          "internalType": "address",
          "name": "sender",
          "type": "address"
        }
      ],
      "name": "RoleGranted",
      "type": "event"
    },
    {
      "anonymous": false,
      "inputs": [
        {
          "indexed": true,
          "internalType": "bytes32",
          "name": "role",
          "type": "bytes32"
        },
        {
          "indexed": true,
          "internalType": "address",
          "name": "account",
          "type": "address"
        },
        {
          "indexed": true,
          "internalType": "address",
          "name": "sender",
          "type": "address"
        }
      ],
      "name": "RoleRevoked",
      "type": "event"
    },
    {
      "anonymous": false,
      "inputs": [
        {
          "indexed": true,
          "internalType": "address",
          "name": "from",
          "type": "address"
        },
        {
          "indexed": true,
          "internalType": "address",
          "name": "to",
          "type": "address"
        },
        {
          "indexed": true,
          "internalType": "uint256",
          "name": "tokenId",
          "type": "uint256"
        }
      ],
      "name": "Transfer",
      "type": "event"
    },
    {
      "inputs": [],
      "name": "ADMIN_ROLE",
      "outputs": [
        {
          "internalType": "bytes32",
          "name": "",
          "type": "bytes32"
        }
      ],
      "stateMutability": "view",
      "type": "function"
    },
    {
      "inputs": [],
      "name": "DEFAULT_ADMIN_ROLE",
      "outputs": [
        {
          "internalType": "bytes32",
          "name": "",
          "type": "bytes32"
        }
      ],
      "stateMutability": "view",
      "type": "function"
    },
    {
      "inputs": [],
      "name": "MAX_PENGUINS",
      "outputs": [
        {
          "internalType": "uint256",
          "name": "",
          "type": "uint256"
        }
      ],
      "stateMutability": "view",
      "type": "function"
    },
    {
      "inputs": [
        {
          "internalType": "address",
          "name": "to",
          "type": "address"
        },
        {
          "internalType": "uint256",
          "name": "tokenId",
          "type": "uint256"
        }
      ],
      "name": "approve",
      "outputs": [],
      "stateMutability": "nonpayable",
      "type": "function"
    },
    {
      "inputs": [
        {
          "internalType": "address",
          "name": "owner",
          "type": "address"
        }
      ],
      "name": "balanceOf",
      "outputs": [
        {
          "internalType": "uint256",
          "name": "",
          "type": "uint256"
        }
      ],
      "stateMutability": "view",
      "type": "function"
    },
    {
      "inputs": [
        {
          "internalType": "uint256",
          "name": "tokenId",
          "type": "uint256"
        }
      ],
      "name": "getApproved",
      "outputs": [
        {
          "internalType": "address",
          "name": "",
          "type": "address"
        }
      ],
      "stateMutability": "view",
      "type": "function"
    },
    {
      "inputs": [],
      "name": "getBaseURI",
      "outputs": [
        {
          "internalType": "string",
          "name": "",
          "type": "string"
        }
      ],
      "stateMutability": "view",
      "type": "function"
    },
    {
      "inputs": [
        {
          "internalType": "bytes32",
          "name": "role",
          "type": "bytes32"
        }
      ],
      "name": "getRoleAdmin",
      "outputs": [
        {
          "internalType": "bytes32",
          "name": "",
          "type": "bytes32"
        }
      ],
      "stateMutability": "view",
      "type": "function"
    },
    {
      "inputs": [
        {
          "internalType": "address",
          "name": "owner",
          "type": "address"
        }
      ],
      "name": "getTokensByOwner",
      "outputs": [
        {
          "internalType": "uint256[]",
          "name": "",
          "type": "uint256[]"
        }
      ],
      "stateMutability": "view",
      "type": "function"
    },
    {
      "inputs": [
        {
          "internalType": "bytes32",
          "name": "role",
          "type": "bytes32"
        },
        {
          "internalType": "address",
          "name": "account",
          "type": "address"
        }
      ],
      "name": "grantRole",
      "outputs": [],
      "stateMutability": "nonpayable",
      "type": "function"
    },
    {
      "inputs": [
        {
          "internalType": "bytes32",
          "name": "role",
          "type": "bytes32"
        },
        {
          "internalType": "address",
          "name": "account",
          "type": "address"
        }
      ],
      "name": "hasRole",
      "outputs": [
        {
          "internalType": "bool",
          "name": "",
          "type": "bool"
        }
      ],
      "stateMutability": "view",
      "type": "function"
    },
    {
      "inputs": [
        {
          "internalType": "address",
          "name": "owner",
          "type": "address"
        },
        {
          "internalType": "address",
          "name": "operator",
          "type": "address"
        }
      ],
      "name": "isApprovedForAll",
      "outputs": [
        {
          "internalType": "bool",
          "name": "",
          "type": "bool"
        }
      ],
      "stateMutability": "view",
      "type": "function"
    },
    {
      "inputs": [
        {
          "internalType": "address",
          "name": "recipient",
          "type": "address"
        }
      ],
      "name": "mint",
      "outputs": [
        {
          "internalType": "uint256",
          "name": "",
          "type": "uint256"
        }
      ],
      "stateMutability": "nonpayable",
      "type": "function"
    },
    {
      "inputs": [],
      "name": "name",
      "outputs": [
        {
          "internalType": "string",
          "name": "",
          "type": "string"
        }
      ],
      "stateMutability": "view",
      "type": "function"
    },
    {
      "inputs": [
        {
          "internalType": "uint256",
          "name": "tokenId",
          "type": "uint256"
        }
      ],
      "name": "ownerOf",
      "outputs": [
        {
          "internalType": "address",
          "name": "",
          "type": "address"
        }
      ],
      "stateMutability": "view",
      "type": "function"
    },
    {
      "inputs": [
        {
          "internalType": "bytes32",
          "name": "role",
          "type": "bytes32"
        },
        {
          "internalType": "address",
          "name": "account",
          "type": "address"
        }
      ],
      "name": "renounceRole",
      "outputs": [],
      "stateMutability": "nonpayable",
      "type": "function"
    },
    {
      "inputs": [
        {
          "internalType": "bytes32",
          "name": "role",
          "type": "bytes32"
        },
        {
          "internalType": "address",
          "name": "account",
          "type": "address"
        }
      ],
      "name": "revokeRole",
      "outputs": [],
      "stateMutability": "nonpayable",
      "type": "function"
    },
    {
      "inputs": [
        {
          "internalType": "address",
          "name": "from",
          "type": "address"
        },
        {
          "internalType": "address",
          "name": "to",
          "type": "address"
        },
        {
          "internalType": "uint256",
          "name": "tokenId",
          "type": "uint256"
        }
      ],
      "name": "safeTransferFrom",
      "outputs": [],
      "stateMutability": "nonpayable",
      "type": "function"
    },
    {
      "inputs": [
        {
          "internalType": "address",
          "name": "from",
          "type": "address"
        },
        {
          "internalType": "address",
          "name": "to",
          "type": "address"
        },
        {
          "internalType": "uint256",
          "name": "tokenId",
          "type": "uint256"
        },
        {
          "internalType": "bytes",
          "name": "data",
          "type": "bytes"
        }
      ],
      "name": "safeTransferFrom",
      "outputs": [],
      "stateMutability": "nonpayable",
      "type": "function"
    },
    {
      "inputs": [
        {
          "internalType": "address",
          "name": "operator",
          "type": "address"
        },
        {
          "internalType": "bool",
          "name": "approved",
          "type": "bool"
        }
      ],
      "name": "setApprovalForAll",
      "outputs": [],
      "stateMutability": "nonpayable",
      "type": "function"
    },
    {
      "inputs": [
        {
          "internalType": "string",
          "name": "baseURI",
          "type": "string"
        }
      ],
      "name": "setBaseURI",
      "outputs": [],
      "stateMutability": "nonpayable",
      "type": "function"
    },
    {
      "inputs": [
        {
          "internalType": "bytes4",
          "name": "interfaceId",
          "type": "bytes4"
        }
      ],
      "name": "supportsInterface",
      "outputs": [
        {
          "internalType": "bool",
          "name": "",
          "type": "bool"
        }
      ],
      "stateMutability": "view",
      "type": "function"
    },
    {
      "inputs": [],
      "name": "symbol",
      "outputs": [
        {
          "internalType": "string",
          "name": "",
          "type": "string"
        }
      ],
      "stateMutability": "view",
      "type": "function"
    },
    {
      "inputs": [
        {
          "internalType": "uint256",
          "name": "tokenId",
          "type": "uint256"
        }
      ],
      "name": "tokenURI",
      "outputs": [
        {
          "internalType": "string",
          "name": "",
          "type": "string"
        }
      ],
      "stateMutability": "view",
      "type": "function"
    },
    {
      "inputs": [
        {
          "internalType": "address",
          "name": "from",
          "type": "address"
        },
        {
          "internalType": "address",
          "name": "to",
          "type": "address"
        },
        {
          "internalType": "uint256",
          "name": "tokenId",
          "type": "uint256"
        }
      ],
      "name": "transfer",
      "outputs": [],
      "stateMutability": "nonpayable",
      "type": "function"
    },
    {
      "inputs": [
        {
          "internalType": "address",
          "name": "from",
          "type": "address"
        },
        {
          "internalType": "address",
          "name": "to",
          "type": "address"
        },
        {
          "internalType": "uint256",
          "name": "tokenId",
          "type": "uint256"
        }
      ],
      "name": "transferFrom",
      "outputs": [],
      "stateMutability": "nonpayable",
      "type": "function"
    },
    {
      "inputs": [
        {
          "internalType": "uint256",
          "name": "value",
          "type": "uint256"
        }
      ],
      "name": "uint256ToString",
      "outputs": [
        {
          "internalType": "string",
          "name": "",
          "type": "string"
        }
      ],
      "stateMutability": "pure",
      "type": "function"
    }
  ],
  "bytecode": "0x60806040523480156200001157600080fd5b50604051620044fb380380620044fb83398181016040528101906200003791906200051a565b6040518060400160405280600d81526020017f43727970746f50656e6775696e000000000000000000000000000000000000008152506040518060400160405280600281526020017f43500000000000000000000000000000000000000000000000000000000000008152508160009080519060200190620000bb929190620002cd565b508060019080519060200190620000d4929190620002cd565b505050620000e8816200013660201b60201c565b620000fd6000801b336200015260201b60201c565b6200012f7fa49807205ce4d355092ef5a8a18f56e8913cf4a201fbe287825b095693c21775336200015260201b60201c565b50620005d0565b80600990805190602001906200014e929190620002cd565b5050565b6200016482826200016860201b60201c565b5050565b6200017a82826200025a60201b60201c565b620002565760016007600084815260200190815260200160002060000160008373ffffffffffffffffffffffffffffffffffffffff1673ffffffffffffffffffffffffffffffffffffffff16815260200190815260200160002060006101000a81548160ff021916908315150217905550620001fb620002c560201b60201c565b73ffffffffffffffffffffffffffffffffffffffff168173ffffffffffffffffffffffffffffffffffffffff16837f2f8788117e7eff1d82e926ec794901d17c78024a50270940304540a733656f0d60405160405180910390a45b5050565b60006007600084815260200190815260200160002060000160008373ffffffffffffffffffffffffffffffffffffffff1673ffffffffffffffffffffffffffffffffffffffff16815260200190815260200160002060009054906101000a900460ff16905092915050565b600033905090565b828054620002db906200059a565b90600052602060002090601f016020900481019282620002ff57600085556200034b565b82601f106200031a57805160ff19168380011785556200034b565b828001600101855582156200034b579182015b828111156200034a5782518255916020019190600101906200032d565b5b5090506200035a91906200035e565b5090565b5b80821115620003795760008160009055506001016200035f565b5090565b6000604051905090565b600080fd5b600080fd5b600080fd5b600080fd5b6000601f19601f8301169050919050565b7f4e487b7100000000000000000000000000000000000000000000000000000000600052604160045260246000fd5b620003e6826200039b565b810181811067ffffffffffffffff82111715620004085762000407620003ac565b5b80604052505050565b60006200041d6200037d565b90506200042b8282620003db565b919050565b600067ffffffffffffffff8211156200044e576200044d620003ac565b5b62000459826200039b565b9050602081019050919050565b60005b838110156200048657808201518184015260208101905062000469565b8381111562000496576000848401525b50505050565b6000620004b3620004ad8462000430565b62000411565b905082815260208101848484011115620004d257620004d162000396565b5b620004df84828562000466565b509392505050565b600082601f830112620004ff57620004fe62000391565b5b8151620005118482602086016200049c565b91505092915050565b60006020828403121562000533576200053262000387565b5b600082015167ffffffffffffffff8111156200055457620005536200038c565b5b6200056284828501620004e7565b91505092915050565b7f4e487b7100000000000000000000000000000000000000000000000000000000600052602260045260246000fd5b60006002820490506001821680620005b357607f821691505b60208210811415620005ca57620005c96200056b565b5b50919050565b613f1b80620005e06000396000f3fe608060405234801561001057600080fd5b50600436106101a95760003560e01c80636a627842116100f9578063a22cb46511610097578063c87b56dd11610071578063c87b56dd146104de578063ce7e51e31461050e578063d547741f1461053e578063e985e9c51461055a576101a9565b8063a22cb4651461048a578063b88d4fde146104a6578063beabacc8146104c2576101a9565b806375b238fc116100d357806375b238fc1461040057806391d148541461041e57806395d89b411461044e578063a217fddf1461046c576101a9565b80636a6278421461038257806370a08231146103b2578063714c5398146103e2576101a9565b8063248a9ca31161016657806340398d671161014057806340398d67146102ea57806342842e0e1461031a57806355f804b3146103365780636352211e14610352576101a9565b8063248a9ca3146102825780632f2ff15d146102b257806336568abe146102ce576101a9565b806301ffc9a7146101ae57806306fdde03146101de578063081812fc146101fc578063095ea7b31461022c5780631b95a0221461024857806323b872dd14610266575b600080fd5b6101c860048036038101906101c391906128cc565b61058a565b6040516101d59190612914565b60405180910390f35b6101e661059c565b6040516101f391906129c8565b60405180910390f35b61021660048036038101906102119190612a20565b61062e565b6040516102239190612a8e565b60405180910390f35b61024660048036038101906102419190612ad5565b610674565b005b61025061078c565b60405161025d9190612b24565b60405180910390f35b610280600480360381019061027b9190612b3f565b610792565b005b61029c60048036038101906102979190612bc8565b6107f2565b6040516102a99190612c04565b60405180910390f35b6102cc60048036038101906102c79190612c1f565b610812565b005b6102e860048036038101906102e39190612c1f565b610833565b005b61030460048036038101906102ff9190612c5f565b6108b6565b6040516103119190612d4a565b60405180910390f35b610334600480360381019061032f9190612b3f565b6109b4565b005b610350600480360381019061034b9190612ea1565b6109d4565b005b61036c60048036038101906103679190612a20565b610a49565b6040516103799190612a8e565b60405180910390f35b61039c60048036038101906103979190612c5f565b610ad0565b6040516103a99190612b24565b60405180910390f35b6103cc60048036038101906103c79190612c5f565b610b84565b6040516103d99190612b24565b60405180910390f35b6103ea610c3c565b6040516103f791906129c8565b60405180910390f35b610408610cce565b6040516104159190612c04565b60405180910390f35b61043860048036038101906104339190612c1f565b610cf2565b6040516104459190612914565b60405180910390f35b610456610d5d565b60405161046391906129c8565b60405180910390f35b610474610def565b6040516104819190612c04565b60405180910390f35b6104a4600480360381019061049f9190612f16565b610df6565b005b6104c060048036038101906104bb9190612ff7565b610e0c565b005b6104dc60048036038101906104d79190612b3f565b610e6e565b005b6104f860048036038101906104f39190612a20565b610ec7565b60405161050591906129c8565b60405180910390f35b61052860048036038101906105239190612a20565b610fda565b60405161053591906129c8565b60405180910390f35b61055860048036038101906105539190612c1f565b61113b565b005b610574600480360381019061056f919061307a565b61115c565b6040516105819190612914565b60405180910390f35b6000610595826111f0565b9050919050565b6060600080546105ab906130e9565b80601f01602080910402602001604051908101604052809291908181526020018280546105d7906130e9565b80156106245780601f106105f957610100808354040283529160200191610624565b820191906000526020600020905b81548152906001019060200180831161060757829003601f168201915b5050505050905090565b60006106398261126a565b6004600083815260200190815260200160002060009054906101000a900473ffffffffffffffffffffffffffffffffffffffff169050919050565b600061067f82610a49565b90508073ffffffffffffffffffffffffffffffffffffffff168373ffffffffffffffffffffffffffffffffffffffff1614156106f0576040517f08c379a00000000000000000000000000000000000000000000000000000000081526004016106e79061318d565b60405180910390fd5b8073ffffffffffffffffffffffffffffffffffffffff1661070f6112b5565b73ffffffffffffffffffffffffffffffffffffffff16148061073e575061073d816107386112b5565b61115c565b5b61077d576040517f08c379a00000000000000000000000000000000000000000000000000000000081526004016107749061321f565b60405180910390fd5b61078783836112bd565b505050565b6103e881565b6107a361079d6112b5565b82611376565b6107e2576040517f08c379a00000000000000000000000000000000000000000000000000000000081526004016107d9906132b1565b60405180910390fd5b6107ed83838361140b565b505050565b600060076000838152602001908152602001600020600101549050919050565b61081b826107f2565b61082481611705565b61082e8383611719565b505050565b61083b6112b5565b73ffffffffffffffffffffffffffffffffffffffff168173ffffffffffffffffffffffffffffffffffffffff16146108a8576040517f08c379a000000000000000000000000000000000000000000000000000000000815260040161089f90613343565b60405180910390fd5b6108b282826117fa565b5050565b606060006108c383610b84565b905060008167ffffffffffffffff8111156108e1576108e0612d76565b5b60405190808252806020026020018201604052801561090f5781602001602082028036833780820191505090505b509050600080600190505b61092460086118dc565b81116109a8578573ffffffffffffffffffffffffffffffffffffffff1661094a82610a49565b73ffffffffffffffffffffffffffffffffffffffff161415610995578083838151811061097a57610979613363565b5b6020026020010181815250508180610991906133c1565b9250505b80806109a0906133c1565b91505061091a565b50819350505050919050565b6109cf83838360405180602001604052806000815250610e0c565b505050565b6109fe7fa49807205ce4d355092ef5a8a18f56e8913cf4a201fbe287825b095693c2177533610cf2565b610a3d576040517f08c379a0000000000000000000000000000000000000000000000000000000008152600401610a349061347c565b60405180910390fd5b610a46816118ea565b50565b600080610a5583611904565b9050600073ffffffffffffffffffffffffffffffffffffffff168173ffffffffffffffffffffffffffffffffffffffff161415610ac7576040517f08c379a0000000000000000000000000000000000000000000000000000000008152600401610abe906134e8565b60405180910390fd5b80915050919050565b60006103e8610adf60086118dc565b10610b1f576040517f08c379a0000000000000000000000000000000000000000000000000000000008152600401610b169061357a565b60405180910390fd5b610b296008611941565b6000610b3560086118dc565b9050610b418382611957565b610b7b81610b4d610c3c565b610b5684610fda565b604051602001610b67929190613622565b604051602081830303815290604052611b75565b80915050919050565b60008073ffffffffffffffffffffffffffffffffffffffff168273ffffffffffffffffffffffffffffffffffffffff161415610bf5576040517f08c379a0000000000000000000000000000000000000000000000000000000008152600401610bec906136c3565b60405180910390fd5b600360008373ffffffffffffffffffffffffffffffffffffffff1673ffffffffffffffffffffffffffffffffffffffff168152602001908152602001600020549050919050565b606060098054610c4b906130e9565b80601f0160208091040260200160405190810160405280929190818152602001828054610c77906130e9565b8015610cc45780601f10610c9957610100808354040283529160200191610cc4565b820191906000526020600020905b815481529060010190602001808311610ca757829003601f168201915b5050505050905090565b7fa49807205ce4d355092ef5a8a18f56e8913cf4a201fbe287825b095693c2177581565b60006007600084815260200190815260200160002060000160008373ffffffffffffffffffffffffffffffffffffffff1673ffffffffffffffffffffffffffffffffffffffff16815260200190815260200160002060009054906101000a900460ff16905092915050565b606060018054610d6c906130e9565b80601f0160208091040260200160405190810160405280929190818152602001828054610d98906130e9565b8015610de55780601f10610dba57610100808354040283529160200191610de5565b820191906000526020600020905b815481529060010190602001808311610dc857829003601f168201915b5050505050905090565b6000801b81565b610e08610e016112b5565b8383611be9565b5050565b610e1d610e176112b5565b83611376565b610e5c576040517f08c379a0000000000000000000000000000000000000000000000000000000008152600401610e53906132b1565b60405180910390fd5b610e6884848484611d56565b50505050565b610e783382611376565b610eb7576040517f08c379a0000000000000000000000000000000000000000000000000000000008152600401610eae90613755565b60405180910390fd5b610ec283838361140b565b505050565b6060610ed28261126a565b6000600660008481526020019081526020016000208054610ef2906130e9565b80601f0160208091040260200160405190810160405280929190818152602001828054610f1e906130e9565b8015610f6b5780601f10610f4057610100808354040283529160200191610f6b565b820191906000526020600020905b815481529060010190602001808311610f4e57829003601f168201915b505050505090506000610f7c611db2565b9050600081511415610f92578192505050610fd5565b600082511115610fc7578082604051602001610faf929190613775565b60405160208183030381529060405292505050610fd5565b610fd084611dc9565b925050505b919050565b60606000821415611022576040518060400160405280600181526020017f30000000000000000000000000000000000000000000000000000000000000008152509050611136565b600082905060005b6000821461105457808061103d906133c1565b915050600a8261104d91906137c8565b915061102a565b60008167ffffffffffffffff8111156110705761106f612d76565b5b6040519080825280601f01601f1916602001820160405280156110a25781602001600182028036833780820191505090505b5090505b6000851461112f576001826110bb91906137f9565b9150600a856110ca919061382d565b60306110d6919061385e565b60f81b8183815181106110ec576110eb613363565b5b60200101907effffffffffffffffffffffffffffffffffffffffffffffffffffffffffffff1916908160001a905350600a8561112891906137c8565b94506110a6565b8093505050505b919050565b611144826107f2565b61114d81611705565b61115783836117fa565b505050565b6000600560008473ffffffffffffffffffffffffffffffffffffffff1673ffffffffffffffffffffffffffffffffffffffff16815260200190815260200160002060008373ffffffffffffffffffffffffffffffffffffffff1673ffffffffffffffffffffffffffffffffffffffff16815260200190815260200160002060009054906101000a900460ff16905092915050565b60007f7965db0b000000000000000000000000000000000000000000000000000000007bffffffffffffffffffffffffffffffffffffffffffffffffffffffff1916827bffffffffffffffffffffffffffffffffffffffffffffffffffffffff19161480611263575061126282611e31565b5b9050919050565b61127381611f13565b6112b2576040517f08c379a00000000000000000000000000000000000000000000000000000000081526004016112a9906134e8565b60405180910390fd5b50565b600033905090565b816004600083815260200190815260200160002060006101000a81548173ffffffffffffffffffffffffffffffffffffffff021916908373ffffffffffffffffffffffffffffffffffffffff160217905550808273ffffffffffffffffffffffffffffffffffffffff1661133083610a49565b73ffffffffffffffffffffffffffffffffffffffff167f8c5be1e5ebec7d5bd14f71427d1e84f3dd0314c0f7b2291e5b200ac8c7c3b92560405160405180910390a45050565b60008061138283610a49565b90508073ffffffffffffffffffffffffffffffffffffffff168473ffffffffffffffffffffffffffffffffffffffff1614806113c457506113c3818561115c565b5b8061140257508373ffffffffffffffffffffffffffffffffffffffff166113ea8461062e565b73ffffffffffffffffffffffffffffffffffffffff16145b91505092915050565b8273ffffffffffffffffffffffffffffffffffffffff1661142b82610a49565b73ffffffffffffffffffffffffffffffffffffffff1614611481576040517f08c379a000000000000000000000000000000000000000000000000000000000815260040161147890613926565b60405180910390fd5b600073ffffffffffffffffffffffffffffffffffffffff168273ffffffffffffffffffffffffffffffffffffffff1614156114f1576040517f08c379a00000000000000000000000000000000000000000000000000000000081526004016114e8906139b8565b60405180910390fd5b6114fe8383836001611f54565b8273ffffffffffffffffffffffffffffffffffffffff1661151e82610a49565b73ffffffffffffffffffffffffffffffffffffffff1614611574576040517f08c379a000000000000000000000000000000000000000000000000000000000815260040161156b90613926565b60405180910390fd5b6004600082815260200190815260200160002060006101000a81549073ffffffffffffffffffffffffffffffffffffffff02191690556001600360008573ffffffffffffffffffffffffffffffffffffffff1673ffffffffffffffffffffffffffffffffffffffff168152602001908152602001600020600082825403925050819055506001600360008473ffffffffffffffffffffffffffffffffffffffff1673ffffffffffffffffffffffffffffffffffffffff16815260200190815260200160002060008282540192505081905550816002600083815260200190815260200160002060006101000a81548173ffffffffffffffffffffffffffffffffffffffff021916908373ffffffffffffffffffffffffffffffffffffffff160217905550808273ffffffffffffffffffffffffffffffffffffffff168473ffffffffffffffffffffffffffffffffffffffff167fddf252ad1be2c89b69c2b068fc378daa952ba7f163c4a11628f55a4df523b3ef60405160405180910390a4611700838383600161207a565b505050565b611716816117116112b5565b612080565b50565b6117238282610cf2565b6117f65760016007600084815260200190815260200160002060000160008373ffffffffffffffffffffffffffffffffffffffff1673ffffffffffffffffffffffffffffffffffffffff16815260200190815260200160002060006101000a81548160ff02191690831515021790555061179b6112b5565b73ffffffffffffffffffffffffffffffffffffffff168173ffffffffffffffffffffffffffffffffffffffff16837f2f8788117e7eff1d82e926ec794901d17c78024a50270940304540a733656f0d60405160405180910390a45b5050565b6118048282610cf2565b156118d85760006007600084815260200190815260200160002060000160008373ffffffffffffffffffffffffffffffffffffffff1673ffffffffffffffffffffffffffffffffffffffff16815260200190815260200160002060006101000a81548160ff02191690831515021790555061187d6112b5565b73ffffffffffffffffffffffffffffffffffffffff168173ffffffffffffffffffffffffffffffffffffffff16837ff6391f5c32d9c69d2a47ea670b442974b53935d1edc7fd64eb21e047a839171b60405160405180910390a45b5050565b600081600001549050919050565b80600990805190602001906119009291906127bd565b5050565b60006002600083815260200190815260200160002060009054906101000a900473ffffffffffffffffffffffffffffffffffffffff169050919050565b6001816000016000828254019250508190555050565b600073ffffffffffffffffffffffffffffffffffffffff168273ffffffffffffffffffffffffffffffffffffffff1614156119c7576040517f08c379a00000000000000000000000000000000000000000000000000000000081526004016119be90613a24565b60405180910390fd5b6119d081611f13565b15611a10576040517f08c379a0000000000000000000000000000000000000000000000000000000008152600401611a0790613a90565b60405180910390fd5b611a1e600083836001611f54565b611a2781611f13565b15611a67576040517f08c379a0000000000000000000000000000000000000000000000000000000008152600401611a5e90613a90565b60405180910390fd5b6001600360008473ffffffffffffffffffffffffffffffffffffffff1673ffffffffffffffffffffffffffffffffffffffff16815260200190815260200160002060008282540192505081905550816002600083815260200190815260200160002060006101000a81548173ffffffffffffffffffffffffffffffffffffffff021916908373ffffffffffffffffffffffffffffffffffffffff160217905550808273ffffffffffffffffffffffffffffffffffffffff16600073ffffffffffffffffffffffffffffffffffffffff167fddf252ad1be2c89b69c2b068fc378daa952ba7f163c4a11628f55a4df523b3ef60405160405180910390a4611b7160008383600161207a565b5050565b611b7e82611f13565b611bbd576040517f08c379a0000000000000000000000000000000000000000000000000000000008152600401611bb490613b22565b60405180910390fd5b80600660008481526020019081526020016000209080519060200190611be49291906127bd565b505050565b8173ffffffffffffffffffffffffffffffffffffffff168373ffffffffffffffffffffffffffffffffffffffff161415611c58576040517f08c379a0000000000000000000000000000000000000000000000000000000008152600401611c4f90613b8e565b60405180910390fd5b80600560008573ffffffffffffffffffffffffffffffffffffffff1673ffffffffffffffffffffffffffffffffffffffff16815260200190815260200160002060008473ffffffffffffffffffffffffffffffffffffffff1673ffffffffffffffffffffffffffffffffffffffff16815260200190815260200160002060006101000a81548160ff0219169083151502179055508173ffffffffffffffffffffffffffffffffffffffff168373ffffffffffffffffffffffffffffffffffffffff167f17307eab39ab6107e8899845ad3d59bd9653f200f220920489ca2b5937696c3183604051611d499190612914565b60405180910390a3505050565b611d6184848461140b565b611d6d84848484612105565b611dac576040517f08c379a0000000000000000000000000000000000000000000000000000000008152600401611da390613c20565b60405180910390fd5b50505050565b606060405180602001604052806000815250905090565b6060611dd48261126a565b6000611dde611db2565b90506000815111611dfe5760405180602001604052806000815250611e29565b80611e088461229c565b604051602001611e19929190613775565b6040516020818303038152906040525b915050919050565b60007f80ac58cd000000000000000000000000000000000000000000000000000000007bffffffffffffffffffffffffffffffffffffffffffffffffffffffff1916827bffffffffffffffffffffffffffffffffffffffffffffffffffffffff19161480611efc57507f5b5e139f000000000000000000000000000000000000000000000000000000007bffffffffffffffffffffffffffffffffffffffffffffffffffffffff1916827bffffffffffffffffffffffffffffffffffffffffffffffffffffffff1916145b80611f0c5750611f0b82612374565b5b9050919050565b60008073ffffffffffffffffffffffffffffffffffffffff16611f3583611904565b73ffffffffffffffffffffffffffffffffffffffff1614159050919050565b600181111561207457600073ffffffffffffffffffffffffffffffffffffffff168473ffffffffffffffffffffffffffffffffffffffff1614611fe85780600360008673ffffffffffffffffffffffffffffffffffffffff1673ffffffffffffffffffffffffffffffffffffffff1681526020019081526020016000206000828254611fe091906137f9565b925050819055505b600073ffffffffffffffffffffffffffffffffffffffff168373ffffffffffffffffffffffffffffffffffffffff16146120735780600360008573ffffffffffffffffffffffffffffffffffffffff1673ffffffffffffffffffffffffffffffffffffffff168152602001908152602001600020600082825461206b919061385e565b925050819055505b5b50505050565b50505050565b61208a8282610cf2565b61210157612097816123de565b6120a58360001c602061240b565b6040516020016120b6929190613cd8565b6040516020818303038152906040526040517f08c379a00000000000000000000000000000000000000000000000000000000081526004016120f891906129c8565b60405180910390fd5b5050565b60006121268473ffffffffffffffffffffffffffffffffffffffff16612647565b1561228f578373ffffffffffffffffffffffffffffffffffffffff1663150b7a0261214f6112b5565b8786866040518563ffffffff1660e01b81526004016121719493929190613d67565b602060405180830381600087803b15801561218b57600080fd5b505af19250505080156121bc57506040513d601f19601f820116820180604052508101906121b99190613dc8565b60015b61223f573d80600081146121ec576040519150601f19603f3d011682016040523d82523d6000602084013e6121f1565b606091505b50600081511415612237576040517f08c379a000000000000000000000000000000000000000000000000000000000815260040161222e90613c20565b60405180910390fd5b805181602001fd5b63150b7a0260e01b7bffffffffffffffffffffffffffffffffffffffffffffffffffffffff1916817bffffffffffffffffffffffffffffffffffffffffffffffffffffffff191614915050612294565b600190505b949350505050565b6060600060016122ab8461266a565b01905060008167ffffffffffffffff8111156122ca576122c9612d76565b5b6040519080825280601f01601f1916602001820160405280156122fc5781602001600182028036833780820191505090505b509050600082602001820190505b600115612369578080600190039150507f3031323334353637383961626364656600000000000000000000000000000000600a86061a8153600a858161235357612352613799565b5b049450600085141561236457612369565b61230a565b819350505050919050565b60007f01ffc9a7000000000000000000000000000000000000000000000000000000007bffffffffffffffffffffffffffffffffffffffffffffffffffffffff1916827bffffffffffffffffffffffffffffffffffffffffffffffffffffffff1916149050919050565b60606124048273ffffffffffffffffffffffffffffffffffffffff16601460ff1661240b565b9050919050565b60606000600283600261241e9190613df5565b612428919061385e565b67ffffffffffffffff81111561244157612440612d76565b5b6040519080825280601f01601f1916602001820160405280156124735781602001600182028036833780820191505090505b5090507f3000000000000000000000000000000000000000000000000000000000000000816000815181106124ab576124aa613363565b5b60200101907effffffffffffffffffffffffffffffffffffffffffffffffffffffffffffff1916908160001a9053507f78000000000000000000000000000000000000000000000000000000000000008160018151811061250f5761250e613363565b5b60200101907effffffffffffffffffffffffffffffffffffffffffffffffffffffffffffff1916908160001a9053506000600184600261254f9190613df5565b612559919061385e565b90505b60018111156125f9577f3031323334353637383961626364656600000000000000000000000000000000600f86166010811061259b5761259a613363565b5b1a60f81b8282815181106125b2576125b1613363565b5b60200101907effffffffffffffffffffffffffffffffffffffffffffffffffffffffffffff1916908160001a905350600485901c9450806125f290613e4f565b905061255c565b506000841461263d576040517f08c379a000000000000000000000000000000000000000000000000000000000815260040161263490613ec5565b60405180910390fd5b8091505092915050565b6000808273ffffffffffffffffffffffffffffffffffffffff163b119050919050565b600080600090507a184f03e93ff9f4daa797ed6e38ed64bf6a1f01000000000000000083106126c8577a184f03e93ff9f4daa797ed6e38ed64bf6a1f01000000000000000083816126be576126bd613799565b5b0492506040810190505b6d04ee2d6d415b85acef81000000008310612705576d04ee2d6d415b85acef810000000083816126fb576126fa613799565b5b0492506020810190505b662386f26fc10000831061273457662386f26fc10000838161272a57612729613799565b5b0492506010810190505b6305f5e100831061275d576305f5e100838161275357612752613799565b5b0492506008810190505b612710831061278257612710838161277857612777613799565b5b0492506004810190505b606483106127a5576064838161279b5761279a613799565b5b0492506002810190505b600a83106127b4576001810190505b80915050919050565b8280546127c9906130e9565b90600052602060002090601f0160209004810192826127eb5760008555612832565b82601f1061280457805160ff1916838001178555612832565b82800160010185558215612832579182015b82811115612831578251825591602001919060010190612816565b5b50905061283f9190612843565b5090565b5b8082111561285c576000816000905550600101612844565b5090565b6000604051905090565b600080fd5b600080fd5b60007fffffffff0000000000000000000000000000000000000000000000000000000082169050919050565b6128a981612874565b81146128b457600080fd5b50565b6000813590506128c6816128a0565b92915050565b6000602082840312156128e2576128e161286a565b5b60006128f0848285016128b7565b91505092915050565b60008115159050919050565b61290e816128f9565b82525050565b60006020820190506129296000830184612905565b92915050565b600081519050919050565b600082825260208201905092915050565b60005b8381101561296957808201518184015260208101905061294e565b83811115612978576000848401525b50505050565b6000601f19601f8301169050919050565b600061299a8261292f565b6129a4818561293a565b93506129b481856020860161294b565b6129bd8161297e565b840191505092915050565b600060208201905081810360008301526129e2818461298f565b905092915050565b6000819050919050565b6129fd816129ea565b8114612a0857600080fd5b50565b600081359050612a1a816129f4565b92915050565b600060208284031215612a3657612a3561286a565b5b6000612a4484828501612a0b565b91505092915050565b600073ffffffffffffffffffffffffffffffffffffffff82169050919050565b6000612a7882612a4d565b9050919050565b612a8881612a6d565b82525050565b6000602082019050612aa36000830184612a7f565b92915050565b612ab281612a6d565b8114612abd57600080fd5b50565b600081359050612acf81612aa9565b92915050565b60008060408385031215612aec57612aeb61286a565b5b6000612afa85828601612ac0565b9250506020612b0b85828601612a0b565b9150509250929050565b612b1e816129ea565b82525050565b6000602082019050612b396000830184612b15565b92915050565b600080600060608486031215612b5857612b5761286a565b5b6000612b6686828701612ac0565b9350506020612b7786828701612ac0565b9250506040612b8886828701612a0b565b9150509250925092565b6000819050919050565b612ba581612b92565b8114612bb057600080fd5b50565b600081359050612bc281612b9c565b92915050565b600060208284031215612bde57612bdd61286a565b5b6000612bec84828501612bb3565b91505092915050565b612bfe81612b92565b82525050565b6000602082019050612c196000830184612bf5565b92915050565b60008060408385031215612c3657612c3561286a565b5b6000612c4485828601612bb3565b9250506020612c5585828601612ac0565b9150509250929050565b600060208284031215612c7557612c7461286a565b5b6000612c8384828501612ac0565b91505092915050565b600081519050919050565b600082825260208201905092915050565b6000819050602082019050919050565b612cc1816129ea565b82525050565b6000612cd38383612cb8565b60208301905092915050565b6000602082019050919050565b6000612cf782612c8c565b612d018185612c97565b9350612d0c83612ca8565b8060005b83811015612d3d578151612d248882612cc7565b9750612d2f83612cdf565b925050600181019050612d10565b5085935050505092915050565b60006020820190508181036000830152612d648184612cec565b905092915050565b600080fd5b600080fd5b7f4e487b7100000000000000000000000000000000000000000000000000000000600052604160045260246000fd5b612dae8261297e565b810181811067ffffffffffffffff82111715612dcd57612dcc612d76565b5b80604052505050565b6000612de0612860565b9050612dec8282612da5565b919050565b600067ffffffffffffffff821115612e0c57612e0b612d76565b5b612e158261297e565b9050602081019050919050565b82818337600083830152505050565b6000612e44612e3f84612df1565b612dd6565b905082815260208101848484011115612e6057612e5f612d71565b5b612e6b848285612e22565b509392505050565b600082601f830112612e8857612e87612d6c565b5b8135612e98848260208601612e31565b91505092915050565b600060208284031215612eb757612eb661286a565b5b600082013567ffffffffffffffff811115612ed557612ed461286f565b5b612ee184828501612e73565b91505092915050565b612ef3816128f9565b8114612efe57600080fd5b50565b600081359050612f1081612eea565b92915050565b60008060408385031215612f2d57612f2c61286a565b5b6000612f3b85828601612ac0565b9250506020612f4c85828601612f01565b9150509250929050565b600067ffffffffffffffff821115612f7157612f70612d76565b5b612f7a8261297e565b9050602081019050919050565b6000612f9a612f9584612f56565b612dd6565b905082815260208101848484011115612fb657612fb5612d71565b5b612fc1848285612e22565b509392505050565b600082601f830112612fde57612fdd612d6c565b5b8135612fee848260208601612f87565b91505092915050565b600080600080608085870312156130115761301061286a565b5b600061301f87828801612ac0565b945050602061303087828801612ac0565b935050604061304187828801612a0b565b925050606085013567ffffffffffffffff8111156130625761306161286f565b5b61306e87828801612fc9565b91505092959194509250565b600080604083850312156130915761309061286a565b5b600061309f85828601612ac0565b92505060206130b085828601612ac0565b9150509250929050565b7f4e487b7100000000000000000000000000000000000000000000000000000000600052602260045260246000fd5b6000600282049050600182168061310157607f821691505b60208210811415613115576131146130ba565b5b50919050565b7f4552433732313a20617070726f76616c20746f2063757272656e74206f776e6560008201527f7200000000000000000000000000000000000000000000000000000000000000602082015250565b600061317760218361293a565b91506131828261311b565b604082019050919050565b600060208201905081810360008301526131a68161316a565b9050919050565b7f4552433732313a20617070726f76652063616c6c6572206973206e6f7420746f60008201527f6b656e206f776e6572206f7220617070726f76656420666f7220616c6c000000602082015250565b6000613209603d8361293a565b9150613214826131ad565b604082019050919050565b60006020820190508181036000830152613238816131fc565b9050919050565b7f4552433732313a2063616c6c6572206973206e6f7420746f6b656e206f776e6560008201527f72206f7220617070726f76656400000000000000000000000000000000000000602082015250565b600061329b602d8361293a565b91506132a68261323f565b604082019050919050565b600060208201905081810360008301526132ca8161328e565b9050919050565b7f416363657373436f6e74726f6c3a2063616e206f6e6c792072656e6f756e636560008201527f20726f6c657320666f722073656c660000000000000000000000000000000000602082015250565b600061332d602f8361293a565b9150613338826132d1565b604082019050919050565b6000602082019050818103600083015261335c81613320565b9050919050565b7f4e487b7100000000000000000000000000000000000000000000000000000000600052603260045260246000fd5b7f4e487b7100000000000000000000000000000000000000000000000000000000600052601160045260246000fd5b60006133cc826129ea565b91507fffffffffffffffffffffffffffffffffffffffffffffffffffffffffffffffff8214156133ff576133fe613392565b5b600182019050919050565b7f43727970746f50656e6775696e3a206d75737420686176652061646d696e207260008201527f6f6c6520746f2073657420626173652055524900000000000000000000000000602082015250565b600061346660338361293a565b91506134718261340a565b604082019050919050565b6000602082019050818103600083015261349581613459565b9050919050565b7f4552433732313a20696e76616c696420746f6b656e2049440000000000000000600082015250565b60006134d260188361293a565b91506134dd8261349c565b602082019050919050565b60006020820190508181036000830152613501816134c5565b9050919050565b7f43727970746f50656e6775696e3a206d6178696d756d206e756d626572206f6660008201527f2070656e6775696e732072656163686564000000000000000000000000000000602082015250565b600061356460318361293a565b915061356f82613508565b604082019050919050565b6000602082019050818103600083015261359381613557565b9050919050565b600081905092915050565b60006135b08261292f565b6135ba818561359a565b93506135ca81856020860161294b565b80840191505092915050565b7f2f6d657461646174612e6a736f6e000000000000000000000000000000000000600082015250565b600061360c600e8361359a565b9150613617826135d6565b600e82019050919050565b600061362e82856135a5565b915061363a82846135a5565b9150613645826135ff565b91508190509392505050565b7f4552433732313a2061646472657373207a65726f206973206e6f74206120766160008201527f6c6964206f776e65720000000000000000000000000000000000000000000000602082015250565b60006136ad60298361293a565b91506136b882613651565b604082019050919050565b600060208201905081810360008301526136dc816136a0565b9050919050565b7f43727970746f50656e6775696e3a207472616e736665722063616c6c6572206960008201527f73206e6f74206f776e6572206e6f7220617070726f7665640000000000000000602082015250565b600061373f60388361293a565b915061374a826136e3565b604082019050919050565b6000602082019050818103600083015261376e81613732565b9050919050565b600061378182856135a5565b915061378d82846135a5565b91508190509392505050565b7f4e487b7100000000000000000000000000000000000000000000000000000000600052601260045260246000fd5b60006137d3826129ea565b91506137de836129ea565b9250826137ee576137ed613799565b5b828204905092915050565b6000613804826129ea565b915061380f836129ea565b92508282101561382257613821613392565b5b828203905092915050565b6000613838826129ea565b9150613843836129ea565b92508261385357613852613799565b5b828206905092915050565b6000613869826129ea565b9150613874836129ea565b9250827fffffffffffffffffffffffffffffffffffffffffffffffffffffffffffffffff038211156138a9576138a8613392565b5b828201905092915050565b7f4552433732313a207472616e736665722066726f6d20696e636f72726563742060008201527f6f776e6572000000000000000000000000000000000000000000000000000000602082015250565b600061391060258361293a565b915061391b826138b4565b604082019050919050565b6000602082019050818103600083015261393f81613903565b9050919050565b7f4552433732313a207472616e7366657220746f20746865207a65726f2061646460008201527f7265737300000000000000000000000000000000000000000000000000000000602082015250565b60006139a260248361293a565b91506139ad82613946565b604082019050919050565b600060208201905081810360008301526139d181613995565b9050919050565b7f4552433732313a206d696e7420746f20746865207a65726f2061646472657373600082015250565b6000613a0e60208361293a565b9150613a19826139d8565b602082019050919050565b60006020820190508181036000830152613a3d81613a01565b9050919050565b7f4552433732313a20746f6b656e20616c7265616479206d696e74656400000000600082015250565b6000613a7a601c8361293a565b9150613a8582613a44565b602082019050919050565b60006020820190508181036000830152613aa981613a6d565b9050919050565b7f45524337323155524953746f726167653a2055524920736574206f66206e6f6e60008201527f6578697374656e7420746f6b656e000000000000000000000000000000000000602082015250565b6000613b0c602e8361293a565b9150613b1782613ab0565b604082019050919050565b60006020820190508181036000830152613b3b81613aff565b9050919050565b7f4552433732313a20617070726f766520746f2063616c6c657200000000000000600082015250565b6000613b7860198361293a565b9150613b8382613b42565b602082019050919050565b60006020820190508181036000830152613ba781613b6b565b9050919050565b7f4552433732313a207472616e7366657220746f206e6f6e20455243373231526560008201527f63656976657220696d706c656d656e7465720000000000000000000000000000602082015250565b6000613c0a60328361293a565b9150613c1582613bae565b604082019050919050565b60006020820190508181036000830152613c3981613bfd565b9050919050565b7f416363657373436f6e74726f6c3a206163636f756e7420000000000000000000600082015250565b6000613c7660178361359a565b9150613c8182613c40565b601782019050919050565b7f206973206d697373696e6720726f6c6520000000000000000000000000000000600082015250565b6000613cc260118361359a565b9150613ccd82613c8c565b601182019050919050565b6000613ce382613c69565b9150613cef82856135a5565b9150613cfa82613cb5565b9150613d0682846135a5565b91508190509392505050565b600081519050919050565b600082825260208201905092915050565b6000613d3982613d12565b613d438185613d1d565b9350613d5381856020860161294b565b613d5c8161297e565b840191505092915050565b6000608082019050613d7c6000830187612a7f565b613d896020830186612a7f565b613d966040830185612b15565b8181036060830152613da88184613d2e565b905095945050505050565b600081519050613dc2816128a0565b92915050565b600060208284031215613dde57613ddd61286a565b5b6000613dec84828501613db3565b91505092915050565b6000613e00826129ea565b9150613e0b836129ea565b9250817fffffffffffffffffffffffffffffffffffffffffffffffffffffffffffffffff0483118215151615613e4457613e43613392565b5b828202905092915050565b6000613e5a826129ea565b91506000821415613e6e57613e6d613392565b5b600182039050919050565b7f537472696e67733a20686578206c656e67746820696e73756666696369656e74600082015250565b6000613eaf60208361293a565b9150613eba82613e79565b602082019050919050565b60006020820190508181036000830152613ede81613ea2565b905091905056fea2646970667358221220d56519ee9efdb22d20a10c2f9c6d7c534673b2d3f95fe781a66e98836ee6036a64736f6c63430008090033",
  "linkReferences": {},
  "deployedLinkReferences": {}
}